{
  "contractName": "WrappedCfx",
  "abi": [
    {
      "inputs": [
        {
          "internalType": "address[]",
          "name": "defaultOperators",
          "type": "address[]"
        }
      ],
      "payable": false,
      "stateMutability": "nonpayable",
      "type": "constructor"
    },
    {
      "anonymous": false,
      "inputs": [
        {
          "indexed": true,
          "internalType": "address",
          "name": "owner",
          "type": "address"
        },
        {
          "indexed": true,
          "internalType": "address",
          "name": "spender",
          "type": "address"
        },
        {
          "indexed": false,
          "internalType": "uint256",
          "name": "value",
          "type": "uint256"
        }
      ],
      "name": "Approval",
      "type": "event"
    },
    {
      "anonymous": false,
      "inputs": [
        {
          "indexed": true,
          "internalType": "address",
          "name": "operator",
          "type": "address"
        },
        {
          "indexed": true,
          "internalType": "address",
          "name": "tokenHolder",
          "type": "address"
        }
      ],
      "name": "AuthorizedOperator",
      "type": "event"
    },
    {
      "anonymous": false,
      "inputs": [
        {
          "indexed": true,
          "internalType": "address",
          "name": "operator",
          "type": "address"
        },
        {
          "indexed": true,
          "internalType": "address",
          "name": "from",
          "type": "address"
        },
        {
          "indexed": false,
          "internalType": "uint256",
          "name": "amount",
          "type": "uint256"
        },
        {
          "indexed": false,
          "internalType": "bytes",
          "name": "data",
          "type": "bytes"
        },
        {
          "indexed": false,
          "internalType": "bytes",
          "name": "operatorData",
          "type": "bytes"
        }
      ],
      "name": "Burned",
      "type": "event"
    },
    {
      "anonymous": false,
      "inputs": [
        {
          "indexed": true,
          "internalType": "address",
          "name": "dst",
          "type": "address"
        },
        {
          "indexed": true,
          "internalType": "bytes",
          "name": "dat",
          "type": "bytes"
        },
        {
          "indexed": false,
          "internalType": "uint256",
          "name": "wad",
          "type": "uint256"
        }
      ],
      "name": "Deposit",
      "type": "event"
    },
    {
      "anonymous": false,
      "inputs": [
        {
          "indexed": true,
          "internalType": "address",
          "name": "operator",
          "type": "address"
        },
        {
          "indexed": true,
          "internalType": "address",
          "name": "to",
          "type": "address"
        },
        {
          "indexed": false,
          "internalType": "uint256",
          "name": "amount",
          "type": "uint256"
        },
        {
          "indexed": false,
          "internalType": "bytes",
          "name": "data",
          "type": "bytes"
        },
        {
          "indexed": false,
          "internalType": "bytes",
          "name": "operatorData",
          "type": "bytes"
        }
      ],
      "name": "Minted",
      "type": "event"
    },
    {
      "anonymous": false,
      "inputs": [
        {
          "indexed": true,
          "internalType": "address",
          "name": "operator",
          "type": "address"
        },
        {
          "indexed": true,
          "internalType": "address",
          "name": "tokenHolder",
          "type": "address"
        }
      ],
      "name": "RevokedOperator",
      "type": "event"
    },
    {
      "anonymous": false,
      "inputs": [
        {
          "indexed": true,
          "internalType": "address",
          "name": "operator",
          "type": "address"
        },
        {
          "indexed": true,
          "internalType": "address",
          "name": "from",
          "type": "address"
        },
        {
          "indexed": true,
          "internalType": "address",
          "name": "to",
          "type": "address"
        },
        {
          "indexed": false,
          "internalType": "uint256",
          "name": "amount",
          "type": "uint256"
        },
        {
          "indexed": false,
          "internalType": "bytes",
          "name": "data",
          "type": "bytes"
        },
        {
          "indexed": false,
          "internalType": "bytes",
          "name": "operatorData",
          "type": "bytes"
        }
      ],
      "name": "Sent",
      "type": "event"
    },
    {
      "anonymous": false,
      "inputs": [
        {
          "indexed": true,
          "internalType": "address",
          "name": "from",
          "type": "address"
        },
        {
          "indexed": true,
          "internalType": "address",
          "name": "to",
          "type": "address"
        },
        {
          "indexed": false,
          "internalType": "uint256",
          "name": "value",
          "type": "uint256"
        }
      ],
      "name": "Transfer",
      "type": "event"
    },
    {
      "anonymous": false,
      "inputs": [
        {
          "indexed": true,
          "internalType": "address",
          "name": "src",
          "type": "address"
        },
        {
          "indexed": false,
          "internalType": "uint256",
          "name": "wad",
          "type": "uint256"
        }
      ],
      "name": "Withdrawal",
      "type": "event"
    },
    {
      "payable": true,
      "stateMutability": "payable",
      "type": "fallback"
    },
    {
      "constant": true,
      "inputs": [],
      "name": "name",
      "outputs": [
        {
          "internalType": "string",
          "name": "",
          "type": "string"
        }
      ],
      "payable": false,
      "stateMutability": "view",
      "type": "function"
    },
    {
      "constant": true,
      "inputs": [],
      "name": "symbol",
      "outputs": [
        {
          "internalType": "string",
          "name": "",
          "type": "string"
        }
      ],
      "payable": false,
      "stateMutability": "view",
      "type": "function"
    },
    {
      "constant": true,
      "inputs": [],
      "name": "decimals",
      "outputs": [
        {
          "internalType": "uint8",
          "name": "",
          "type": "uint8"
        }
      ],
      "payable": false,
      "stateMutability": "pure",
      "type": "function"
    },
    {
      "constant": true,
      "inputs": [],
      "name": "granularity",
      "outputs": [
        {
          "internalType": "uint256",
          "name": "",
          "type": "uint256"
        }
      ],
      "payable": false,
      "stateMutability": "view",
      "type": "function"
    },
    {
      "constant": true,
      "inputs": [],
      "name": "totalSupply",
      "outputs": [
        {
          "internalType": "uint256",
          "name": "",
          "type": "uint256"
        }
      ],
      "payable": false,
      "stateMutability": "view",
      "type": "function"
    },
    {
      "constant": true,
      "inputs": [
        {
          "internalType": "address",
          "name": "tokenHolder",
          "type": "address"
        }
      ],
      "name": "balanceOf",
      "outputs": [
        {
          "internalType": "uint256",
          "name": "",
          "type": "uint256"
        }
      ],
      "payable": false,
      "stateMutability": "view",
      "type": "function"
    },
    {
      "constant": false,
      "inputs": [
        {
          "internalType": "address",
          "name": "recipient",
          "type": "address"
        },
        {
          "internalType": "uint256",
          "name": "amount",
          "type": "uint256"
        },
        {
          "internalType": "bytes",
          "name": "data",
          "type": "bytes"
        }
      ],
      "name": "send",
      "outputs": [],
      "payable": false,
      "stateMutability": "nonpayable",
      "type": "function"
    },
    {
      "constant": false,
      "inputs": [
        {
          "internalType": "address",
          "name": "recipient",
          "type": "address"
        },
        {
          "internalType": "uint256",
          "name": "amount",
          "type": "uint256"
        }
      ],
      "name": "transfer",
      "outputs": [
        {
          "internalType": "bool",
          "name": "",
          "type": "bool"
        }
      ],
      "payable": false,
      "stateMutability": "nonpayable",
      "type": "function"
    },
    {
      "constant": false,
      "inputs": [
        {
          "internalType": "uint256",
          "name": "amount",
          "type": "uint256"
        }
      ],
      "name": "withdraw",
      "outputs": [],
      "payable": false,
      "stateMutability": "nonpayable",
      "type": "function"
    },
    {
      "constant": false,
      "inputs": [
        {
          "internalType": "uint256",
          "name": "amount",
          "type": "uint256"
        },
        {
          "internalType": "bytes",
          "name": "data",
          "type": "bytes"
        }
      ],
      "name": "burn",
      "outputs": [],
      "payable": false,
      "stateMutability": "nonpayable",
      "type": "function"
    },
    {
      "constant": true,
      "inputs": [
        {
          "internalType": "address",
          "name": "operator",
          "type": "address"
        },
        {
          "internalType": "address",
          "name": "tokenHolder",
          "type": "address"
        }
      ],
      "name": "isOperatorFor",
      "outputs": [
        {
          "internalType": "bool",
          "name": "",
          "type": "bool"
        }
      ],
      "payable": false,
      "stateMutability": "view",
      "type": "function"
    },
    {
      "constant": false,
      "inputs": [
        {
          "internalType": "address",
          "name": "operator",
          "type": "address"
        }
      ],
      "name": "authorizeOperator",
      "outputs": [],
      "payable": false,
      "stateMutability": "nonpayable",
      "type": "function"
    },
    {
      "constant": false,
      "inputs": [
        {
          "internalType": "address",
          "name": "operator",
          "type": "address"
        }
      ],
      "name": "revokeOperator",
      "outputs": [],
      "payable": false,
      "stateMutability": "nonpayable",
      "type": "function"
    },
    {
      "constant": true,
      "inputs": [],
      "name": "defaultOperators",
      "outputs": [
        {
          "internalType": "address[]",
          "name": "",
          "type": "address[]"
        }
      ],
      "payable": false,
      "stateMutability": "view",
      "type": "function"
    },
    {
      "constant": false,
      "inputs": [
        {
          "internalType": "address",
          "name": "sender",
          "type": "address"
        },
        {
          "internalType": "address",
          "name": "recipient",
          "type": "address"
        },
        {
          "internalType": "uint256",
          "name": "amount",
          "type": "uint256"
        },
        {
          "internalType": "bytes",
          "name": "data",
          "type": "bytes"
        },
        {
          "internalType": "bytes",
          "name": "operatorData",
          "type": "bytes"
        }
      ],
      "name": "operatorSend",
      "outputs": [],
      "payable": false,
      "stateMutability": "nonpayable",
      "type": "function"
    },
    {
      "constant": false,
      "inputs": [
        {
          "internalType": "address",
          "name": "account",
          "type": "address"
        },
        {
          "internalType": "uint256",
          "name": "amount",
          "type": "uint256"
        },
        {
          "internalType": "bytes",
          "name": "data",
          "type": "bytes"
        },
        {
          "internalType": "bytes",
          "name": "operatorData",
          "type": "bytes"
        }
      ],
      "name": "operatorBurn",
      "outputs": [],
      "payable": false,
      "stateMutability": "nonpayable",
      "type": "function"
    },
    {
      "constant": true,
      "inputs": [
        {
          "internalType": "address",
          "name": "holder",
          "type": "address"
        },
        {
          "internalType": "address",
          "name": "spender",
          "type": "address"
        }
      ],
      "name": "allowance",
      "outputs": [
        {
          "internalType": "uint256",
          "name": "",
          "type": "uint256"
        }
      ],
      "payable": false,
      "stateMutability": "view",
      "type": "function"
    },
    {
      "constant": false,
      "inputs": [
        {
          "internalType": "address",
          "name": "spender",
          "type": "address"
        },
        {
          "internalType": "uint256",
          "name": "value",
          "type": "uint256"
        }
      ],
      "name": "approve",
      "outputs": [
        {
          "internalType": "bool",
          "name": "",
          "type": "bool"
        }
      ],
      "payable": false,
      "stateMutability": "nonpayable",
      "type": "function"
    },
    {
      "constant": false,
      "inputs": [
        {
          "internalType": "address",
          "name": "holder",
          "type": "address"
        },
        {
          "internalType": "address",
          "name": "recipient",
          "type": "address"
        },
        {
          "internalType": "uint256",
          "name": "amount",
          "type": "uint256"
        }
      ],
      "name": "transferFrom",
      "outputs": [
        {
          "internalType": "bool",
          "name": "",
          "type": "bool"
        }
      ],
      "payable": false,
      "stateMutability": "nonpayable",
      "type": "function"
    },
    {
      "constant": false,
      "inputs": [],
      "name": "deposit",
      "outputs": [],
      "payable": true,
      "stateMutability": "payable",
      "type": "function"
    },
    {
      "constant": false,
      "inputs": [
        {
          "internalType": "address",
          "name": "holder",
          "type": "address"
        },
        {
          "internalType": "bytes",
          "name": "recipient",
          "type": "bytes"
        }
      ],
      "name": "depositFor",
      "outputs": [],
      "payable": true,
      "stateMutability": "payable",
      "type": "function"
    }
  ],
  "bytecode": "0x60806040523480156200001157600080fd5b506040516200271838038062002718833981810160405260208110156200003757600080fd5b81019080805160405193929190846401000000008211156200005857600080fd5b9083019060208201858111156200006e57600080fd5b82518660208202830111640100000000821117156200008c57600080fd5b82525081516020918201928201910280838360005b83811015620000bb578181015183820152602001620000a1565b505050509190910160405250508251620000df925060029150602084019062000274565b5060005b6002548110156200013f57600160036000600284815481106200010257fe5b6000918252602080832091909101546001600160a01b031683528201929092526040019020805460ff1916911515919091179055600101620000e3565b50604080516a22a9219b9b9baa37b5b2b760a91b8152815190819003600b0181206329965a1d60e01b825230600483018190526024830191909152604482015290517388887ed889e776bcbe2f0f9932ecfabcdfcd1820916329965a1d91606480830192600092919082900301818387803b158015620001be57600080fd5b505af1158015620001d3573d6000803e3d6000fd5b5050604080516922a92199182a37b5b2b760b11b8152815190819003600a0181206329965a1d60e01b825230600483018190526024830191909152604482015290517388887ed889e776bcbe2f0f9932ecfabcdfcd182093506329965a1d9250606480830192600092919082900301818387803b1580156200025457600080fd5b505af115801562000269573d6000803e3d6000fd5b505050505062000308565b828054828255906000526020600020908101928215620002cc579160200282015b82811115620002cc57825182546001600160a01b0319166001600160a01b0390911617825560209092019160019091019062000295565b50620002da929150620002de565b5090565b6200030591905b80821115620002da5780546001600160a01b0319168155600101620002e5565b90565b61240080620003186000396000f3fe60806040526004361061012a5760003560e01c806370a08231116100ab578063d0e30db01161006f578063d0e30db01461012a578063d95b6371146106c8578063dd62ed3e14610703578063fad8b32a1461073e578063fc673c4f14610771578063fe9d9303146108bc5761012a565b806370a082311461054e578063959b8c3f1461058157806395d89b41146105b45780639bd9bbc6146105c9578063a9059cbb1461068f5761012a565b806323b872dd116100f257806323b872dd1461034b5780632e1a7d4d1461038e578063313ce567146103b8578063556f0dc7146103e357806362ad1b83146103f85761012a565b806306e485381461013457806306fdde0314610199578063095ea7b31461022357806318160ddd14610270578063211e7f6914610297575b610132610974565b005b34801561014057600080fd5b506101496109f8565b60408051602080825283518183015283519192839290830191858101910280838360005b8381101561018557818101518382015260200161016d565b505050509050019250505060405180910390f35b3480156101a557600080fd5b506101ae610a5a565b6040805160208082528351818301528351919283929083019185019080838360005b838110156101e85781810151838201526020016101d0565b50505050905090810190601f1680156102155780820380516001836020036101000a031916815260200191505b509250505060405180910390f35b34801561022f57600080fd5b5061025c6004803603604081101561024657600080fd5b506001600160a01b038135169060200135610a83565b604080519115158252519081900360200190f35b34801561027c57600080fd5b50610285610ae1565b60408051918252519081900360200190f35b610132600480360360408110156102ad57600080fd5b6001600160a01b038235169190810190604081016020820135600160201b8111156102d757600080fd5b8201836020820111156102e957600080fd5b803590602001918460018302840111600160201b8311171561030a57600080fd5b91908080601f016020809104026020016040519081016040528093929190818152602001838380828437600092019190915250929550610ae7945050505050565b34801561035757600080fd5b5061025c6004803603606081101561036e57600080fd5b506001600160a01b03813581169160208101359091169060400135610b9c565b34801561039a57600080fd5b50610132600480360360208110156103b157600080fd5b5035610d1f565b3480156103c457600080fd5b506103cd610d3b565b6040805160ff9092168252519081900360200190f35b3480156103ef57600080fd5b50610285610d40565b34801561040457600080fd5b50610132600480360360a081101561041b57600080fd5b6001600160a01b03823581169260208101359091169160408201359190810190608081016060820135600160201b81111561045557600080fd5b82018360208201111561046757600080fd5b803590602001918460018302840111600160201b8311171561048857600080fd5b91908080601f0160208091040260200160405190810160405280939291908181526020018383808284376000920191909152509295949360208101935035915050600160201b8111156104da57600080fd5b8201836020820111156104ec57600080fd5b803590602001918460018302840111600160201b8311171561050d57600080fd5b91908080601f016020809104026020016040519081016040528093929190818152602001838380828437600092019190915250929550610d45945050505050565b34801561055a57600080fd5b506102856004803603602081101561057157600080fd5b50356001600160a01b0316610daf565b34801561058d57600080fd5b50610132600480360360208110156105a457600080fd5b50356001600160a01b0316610dca565b3480156105c057600080fd5b506101ae610f16565b3480156105d557600080fd5b50610132600480360360608110156105ec57600080fd5b6001600160a01b0382351691602081013591810190606081016040820135600160201b81111561061b57600080fd5b82018360208201111561062d57600080fd5b803590602001918460018302840111600160201b8311171561064e57600080fd5b91908080601f016020809104026020016040519081016040528093929190818152602001838380828437600092019190915250929550610f34945050505050565b34801561069b57600080fd5b5061025c600480360360408110156106b257600080fd5b506001600160a01b038135169060200135610f66565b3480156106d457600080fd5b5061025c600480360360408110156106eb57600080fd5b506001600160a01b038135811691602001351661103f565b34801561070f57600080fd5b506102856004803603604081101561072657600080fd5b506001600160a01b03813581169160200135166110e1565b34801561074a57600080fd5b506101326004803603602081101561076157600080fd5b50356001600160a01b031661110c565b34801561077d57600080fd5b506101326004803603608081101561079457600080fd5b6001600160a01b0382351691602081013591810190606081016040820135600160201b8111156107c357600080fd5b8201836020820111156107d557600080fd5b803590602001918460018302840111600160201b831117156107f657600080fd5b91908080601f0160208091040260200160405190810160405280939291908181526020018383808284376000920191909152509295949360208101935035915050600160201b81111561084857600080fd5b82018360208201111561085a57600080fd5b803590602001918460018302840111600160201b8311171561087b57600080fd5b91908080601f016020809104026020016040519081016040528093929190818152602001838380828437600092019190915250929550611258945050505050565b3480156108c857600080fd5b50610132600480360360408110156108df57600080fd5b81359190810190604081016020820135600160201b81111561090057600080fd5b82018360208201111561091257600080fd5b803590602001918460018302840111600160201b8311171561093357600080fd5b91908080601f0160208091040260200160405190810160405280939291908181526020018383808284376000920191909152509295506112be945050505050565b61099f33333460405180602001604052806000815250604051806020016040528060008152506112ec565b6040805134815290517fc5d2460186f7233c927e7db2dcc703c0e500b653ca82273b7bfad8045d85a4709133917f68051bc50b1ef1654bf1e6204b5f8fa9badcd038e00fa5b43f21f898fc2728ca9181900360200190a3565b60606002805480602002602001604051908101604052809291908181526020018280548015610a5057602002820191906000526020600020905b81546001600160a01b03168152600190910190602001808311610a32575b5050505050905090565b60408051808201909152600f81526e0aee4c2e0e0cac84086dedcccd8eaf608b1b602082015290565b60008115801590610ab657503360009081526006602090815260408083206001600160a01b038716845290915290205415155b15610ac057600080fd5b6000610aca611517565b9050610ad781858561151b565b5060019392505050565b60015490565b610b0333833484604051806020016040528060008152506112ec565b806040518082805190602001908083835b60208310610b335780518252601f199092019160209182019101610b14565b51815160209384036101000a60001901801990921691161790526040805192909401829003822034835293519395506001600160a01b03881694507f68051bc50b1ef1654bf1e6204b5f8fa9badcd038e00fa5b43f21f898fc2728ca9391829003019150a35050565b60006001600160a01b038316610be35760405162461bcd60e51b81526004018080602001828103825260248152602001806122e76024913960400191505060405180910390fd5b6001600160a01b038416610c285760405162461bcd60e51b81526004018080602001828103825260268152602001806123606026913960400191505060405180910390fd5b6000610c32611517565b9050610c608186868660405180602001604052806000815250604051806020016040528060008152506115c2565b610c8c81868686604051806020016040528060008152506040518060200160405280600081525061180a565b610ce68582610ce186604051806060016040528060298152602001612337602991396001600160a01b03808c166000908152600660209081526040808320938b1683529290522054919063ffffffff611a2316565b61151b565b610d148186868660405180602001604052806000815250604051806020016040528060008152506000611aba565b506001949350505050565b610d3881604051806020016040528060008152506112be565b50565b601290565b600190565b610d56610d50611517565b8661103f565b610d915760405162461bcd60e51b815260040180806020018281038252602c81526020018061230b602c913960400191505060405180910390fd5b610da8610d9c611517565b86868686866001611d5a565b5050505050565b6001600160a01b031660009081526020819052604090205490565b806001600160a01b0316610ddc611517565b6001600160a01b03161415610e225760405162461bcd60e51b81526004018080602001828103825260248152602001806122556024913960400191505060405180910390fd5b6001600160a01b03811660009081526003602052604090205460ff1615610e855760056000610e4f611517565b6001600160a01b03908116825260208083019390935260409182016000908120918516815292529020805460ff19169055610ecc565b600160046000610e93611517565b6001600160a01b03908116825260208083019390935260409182016000908120918616815292529020805460ff19169115159190911790555b610ed4611517565b6001600160a01b0316816001600160a01b03167ff4caeb2d6ca8932a215a353d0703c326ec2d81fc68170f320eb2ab49e9df61f960405160405180910390a350565b6040805180820190915260048152630ae868cb60e31b602082015290565b610f61610f3f611517565b610f47611517565b858585604051806020016040528060008152506001611d5a565b505050565b60006001600160a01b038316610fad5760405162461bcd60e51b81526004018080602001828103825260248152602001806122e76024913960400191505060405180910390fd5b6000610fb7611517565b9050610fe58182868660405180602001604052806000815250604051806020016040528060008152506115c2565b61101181828686604051806020016040528060008152506040518060200160405280600081525061180a565b610ad78182868660405180602001604052806000815250604051806020016040528060008152506000611aba565b6000816001600160a01b0316836001600160a01b031614806110aa57506001600160a01b03831660009081526003602052604090205460ff1680156110aa57506001600160a01b0380831660009081526005602090815260408083209387168352929052205460ff16155b806110da57506001600160a01b0380831660009081526004602090815260408083209387168352929052205460ff165b9392505050565b6001600160a01b03918216600090815260066020908152604080832093909416825291909152205490565b611114611517565b6001600160a01b0316816001600160a01b031614156111645760405162461bcd60e51b81526004018080602001828103825260218152602001806122796021913960400191505060405180910390fd5b6001600160a01b03811660009081526003602052604090205460ff16156111d057600160056000611193611517565b6001600160a01b03908116825260208083019390935260409182016000908120918616815292529020805460ff191691151591909117905561120e565b600460006111dc611517565b6001600160a01b03908116825260208083019390935260409182016000908120918516815292529020805460ff191690555b611216611517565b6001600160a01b0316816001600160a01b03167f50546e66e5f44d728365dc3908c63bc5cfeeab470722c1677e3073a6ac294aa160405160405180910390a350565b611269611263611517565b8561103f565b6112a45760405162461bcd60e51b815260040180806020018281038252602c81526020018061230b602c913960400191505060405180910390fd5b6112b86112af611517565b85858585611e25565b50505050565b6112e86112c9611517565b6112d1611517565b848460405180602001604052806000815250611e25565b5050565b6001600160a01b038416611347576040805162461bcd60e51b815260206004820181905260248201527f4552433737373a206d696e7420746f20746865207a65726f2061646472657373604482015290519081900360640190fd5b60015461135a908463ffffffff61211116565b6001556001600160a01b038416600090815260208190526040902054611386908463ffffffff61211116565b6001600160a01b0385166000908152602081905260408120919091556113b3908690868686866001611aba565b836001600160a01b0316856001600160a01b03167f2fe5be0146f74c5bce36c0b80911af6c7d86ff27e89d5cfa61fc681327954e5d858585604051808481526020018060200180602001838103835285818151815260200191508051906020019080838360005b8381101561143257818101518382015260200161141a565b50505050905090810190601f16801561145f5780820380516001836020036101000a031916815260200191505b50838103825284518152845160209182019186019080838360005b8381101561149257818101518382015260200161147a565b50505050905090810190601f1680156114bf5780820380516001836020036101000a031916815260200191505b509550505050505060405180910390a36040805184815290516001600160a01b038616916000917fddf252ad1be2c89b69c2b068fc378daa952ba7f163c4a11628f55a4df523b3ef9181900360200190a35050505050565b3390565b6001600160a01b0382166115605760405162461bcd60e51b81526004018080602001828103825260238152602001806123a96023913960400191505060405180910390fd5b6001600160a01b03808416600081815260066020908152604080832094871680845294825291829020859055815185815291517f8c5be1e5ebec7d5bd14f71427d1e84f3dd0314c0f7b2291e5b200ac8c7c3b9259281900390910190a3505050565b6040805163555ddc6560e11b81526001600160a01b03871660048201527f29ddb589b1fb5fc7cf394961c1adf5f8c6454761adf795e67fe149f658abe895602482015290516000917388887ed889e776bcbe2f0f9932ecfabcdfcd18209163aabbb8ca91604480820192602092909190829003018186803b15801561164657600080fd5b505afa15801561165a573d6000803e3d6000fd5b505050506040513d602081101561167057600080fd5b505190506001600160a01b0381161561180157806001600160a01b03166375ab97828888888888886040518763ffffffff1660e01b815260040180876001600160a01b03166001600160a01b03168152602001866001600160a01b03166001600160a01b03168152602001856001600160a01b03166001600160a01b031681526020018481526020018060200180602001838103835285818151815260200191508051906020019080838360005b8381101561173657818101518382015260200161171e565b50505050905090810190601f1680156117635780820380516001836020036101000a031916815260200191505b50838103825284518152845160209182019186019080838360005b8381101561179657818101518382015260200161177e565b50505050905090810190601f1680156117c35780820380516001836020036101000a031916815260200191505b5098505050505050505050600060405180830381600087803b1580156117e857600080fd5b505af11580156117fc573d6000803e3d6000fd5b505050505b50505050505050565b61184d8360405180606001604052806027815260200161220c602791396001600160a01b038816600090815260208190526040902054919063ffffffff611a2316565b6001600160a01b038087166000908152602081905260408082209390935590861681522054611882908463ffffffff61211116565b600080866001600160a01b03166001600160a01b0316815260200190815260200160002081905550836001600160a01b0316856001600160a01b0316876001600160a01b03167f06b541ddaa720db2b10a4d0cdac39b8d360425fc073085fac19bc82614677987868686604051808481526020018060200180602001838103835285818151815260200191508051906020019080838360005b8381101561193357818101518382015260200161191b565b50505050905090810190601f1680156119605780820380516001836020036101000a031916815260200191505b50838103825284518152845160209182019186019080838360005b8381101561199357818101518382015260200161197b565b50505050905090810190601f1680156119c05780820380516001836020036101000a031916815260200191505b509550505050505060405180910390a4836001600160a01b0316856001600160a01b03167fddf252ad1be2c89b69c2b068fc378daa952ba7f163c4a11628f55a4df523b3ef856040518082815260200191505060405180910390a3505050505050565b60008184841115611ab25760405162461bcd60e51b81526004018080602001828103825283818151815260200191508051906020019080838360005b83811015611a77578181015183820152602001611a5f565b50505050905090810190601f168015611aa45780820380516001836020036101000a031916815260200191505b509250505060405180910390fd5b505050900390565b6040805163555ddc6560e11b81526001600160a01b03871660048201527fb281fc8c12954d22544db45de3159a39272895b169a852b314f9cc762e44c53b602482015290516000917388887ed889e776bcbe2f0f9932ecfabcdfcd18209163aabbb8ca91604480820192602092909190829003018186803b158015611b3e57600080fd5b505afa158015611b52573d6000803e3d6000fd5b505050506040513d6020811015611b6857600080fd5b505190506001600160a01b03811615611cfc57806001600160a01b03166223de298989898989896040518763ffffffff1660e01b815260040180876001600160a01b03166001600160a01b03168152602001866001600160a01b03166001600160a01b03168152602001856001600160a01b03166001600160a01b031681526020018481526020018060200180602001838103835285818151815260200191508051906020019080838360005b83811015611c2d578181015183820152602001611c15565b50505050905090810190601f168015611c5a5780820380516001836020036101000a031916815260200191505b50838103825284518152845160209182019186019080838360005b83811015611c8d578181015183820152602001611c75565b50505050905090810190601f168015611cba5780820380516001836020036101000a031916815260200191505b5098505050505050505050600060405180830381600087803b158015611cdf57600080fd5b505af1158015611cf3573d6000803e3d6000fd5b50505050611d50565b8115611d5057611d14866001600160a01b031661216b565b15611d505760405162461bcd60e51b815260040180806020018281038252604d81526020018061229a604d913960600191505060405180910390fd5b5050505050505050565b6001600160a01b038616611d9f5760405162461bcd60e51b81526004018080602001828103825260228152602001806121ea6022913960400191505060405180910390fd5b6001600160a01b038516611dfa576040805162461bcd60e51b815260206004820181905260248201527f4552433737373a2073656e6420746f20746865207a65726f2061646472657373604482015290519081900360640190fd5b611e088787878787876115c2565b611e1687878787878761180a565b61180187878787878787611aba565b6001600160a01b038416611e6a5760405162461bcd60e51b81526004018080602001828103825260228152602001806122336022913960400191505060405180910390fd5b611e79858560008686866115c2565b611ebc83604051806060016040528060238152602001612386602391396001600160a01b038716600090815260208190526040902054919063ffffffff611a2316565b6001600160a01b038516600090815260208190526040902055600154611ee8908463ffffffff6121a716565b6001558151611f305760405184906001600160a01b0382169085156108fc029086906000818181858888f19350505050158015611f29573d6000803e3d6000fd5b5050611f6e565b60148201516040516001600160a01b0382169085156108fc029086906000818181858888f19350505050158015611f6b573d6000803e3d6000fd5b50505b836001600160a01b0316856001600160a01b03167fa78a9be3a7b862d26933ad85fb11d80ef66b8f972d7cbba06621d583943a4098858585604051808481526020018060200180602001838103835285818151815260200191508051906020019080838360005b83811015611fed578181015183820152602001611fd5565b50505050905090810190601f16801561201a5780820380516001836020036101000a031916815260200191505b50838103825284518152845160209182019186019080838360005b8381101561204d578181015183820152602001612035565b50505050905090810190601f16801561207a5780820380516001836020036101000a031916815260200191505b509550505050505060405180910390a36040805184815290516001600160a01b038616917f7fcf532c15f0a6db0bd6d0e038bea71d30d808c7d98cb3bf7268a95bf5081b65919081900360200190a26040805184815290516000916001600160a01b038716917fddf252ad1be2c89b69c2b068fc378daa952ba7f163c4a11628f55a4df523b3ef9181900360200190a35050505050565b6000828201838110156110da576040805162461bcd60e51b815260206004820152601b60248201527f536166654d6174683a206164646974696f6e206f766572666c6f770000000000604482015290519081900360640190fd5b6000813f7fc5d2460186f7233c927e7db2dcc703c0e500b653ca82273b7bfad8045d85a470811580159061219f5750808214155b949350505050565b60006110da83836040518060400160405280601e81526020017f536166654d6174683a207375627472616374696f6e206f766572666c6f770000815250611a2356fe4552433737373a2073656e642066726f6d20746865207a65726f20616464726573734552433737373a207472616e7366657220616d6f756e7420657863656564732062616c616e63654552433737373a206275726e2066726f6d20746865207a65726f20616464726573734552433737373a20617574686f72697a696e672073656c66206173206f70657261746f724552433737373a207265766f6b696e672073656c66206173206f70657261746f724552433737373a20746f6b656e20726563697069656e7420636f6e747261637420686173206e6f20696d706c656d656e74657220666f7220455243373737546f6b656e73526563697069656e744552433737373a207472616e7366657220746f20746865207a65726f20616464726573734552433737373a2063616c6c6572206973206e6f7420616e206f70657261746f7220666f7220686f6c6465724552433737373a207472616e7366657220616d6f756e74206578636565647320616c6c6f77616e63654552433737373a207472616e736665722066726f6d20746865207a65726f20616464726573734552433737373a206275726e20616d6f756e7420657863656564732062616c616e63654552433737373a20617070726f766520746f20746865207a65726f2061646472657373a265627a7a7231582042980a6cb3ee2112efe36692432393b0cf26687f841545f86f27c2b85b58049b64736f6c63430005100032",
  "source": "pragma solidity 0.5.16;\n\nimport \"./IWrappedCfx.sol\";\nimport \"@openzeppelin/contracts/GSN/Context.sol\";\nimport \"@openzeppelin/contracts/token/ERC777/IERC777Recipient.sol\";\nimport \"@openzeppelin/contracts/token/ERC777/IERC777Sender.sol\";\nimport \"@openzeppelin/contracts/token/ERC777/IERC777.sol\";\nimport \"@openzeppelin/contracts/token/ERC20/IERC20.sol\";\nimport \"@openzeppelin/contracts/math/SafeMath.sol\";\nimport \"@openzeppelin/contracts/utils/Address.sol\";\nimport \"@openzeppelin/contracts/introspection/IERC1820Registry.sol\";\n\ncontract WrappedCfx is Context, IERC777, IERC20, IWrappedCfx {\n    using SafeMath for uint256;\n    using Address for address;\n\n    IERC1820Registry private constant ERC1820_REGISTRY = IERC1820Registry(\n        //address(0x1820a4B7618BdE71Dce8cdc73aAB6C95905faD24)\n        address(0x88887eD889e776bCBe2f0f9932EcFaBcDfCd1820)\n    );\n\n    mapping(address => uint256) private _balances;\n\n    uint256 private _totalSupply;\n\n    string private constant _name = \"Wrapped Conflux\";\n    string private constant _symbol = \"WCFX\";\n\n    // keccak256(\"ERC777TokensSender\")\n    bytes32\n        private constant TOKENS_SENDER_INTERFACE_HASH = 0x29ddb589b1fb5fc7cf394961c1adf5f8c6454761adf795e67fe149f658abe895;\n\n    // keccak256(\"ERC777TokensRecipient\")\n    bytes32\n        private constant TOKENS_RECIPIENT_INTERFACE_HASH = 0xb281fc8c12954d22544db45de3159a39272895b169a852b314f9cc762e44c53b;\n\n    event Deposit(address indexed dst, bytes indexed dat, uint256 wad);\n    event Withdrawal(address indexed src, uint256 wad);\n\n    // This isn't ever read from - it's only used to respond to the defaultOperators query.\n    address[] private _defaultOperatorsArray;\n\n    // Immutable, but accounts may revoke them (tracked in __revokedDefaultOperators).\n    mapping(address => bool) private _defaultOperators;\n\n    // For each account, a mapping of its operators and revoked default operators.\n    mapping(address => mapping(address => bool)) private _operators;\n    mapping(address => mapping(address => bool))\n        private _revokedDefaultOperators;\n\n    // ERC20-allowances\n    mapping(address => mapping(address => uint256)) private _allowances;\n\n    /**\n     * @dev `defaultOperators` may be an empty array.\n     */\n    constructor(address[] memory defaultOperators) public {\n        _defaultOperatorsArray = defaultOperators;\n        for (uint256 i = 0; i < _defaultOperatorsArray.length; i++) {\n            _defaultOperators[_defaultOperatorsArray[i]] = true;\n        }\n\n        // register interfaces\n        ERC1820_REGISTRY.setInterfaceImplementer(\n            address(this),\n            keccak256(\"ERC777Token\"),\n            address(this)\n        );\n        ERC1820_REGISTRY.setInterfaceImplementer(\n            address(this),\n            keccak256(\"ERC20Token\"),\n            address(this)\n        );\n    }\n\n    /**\n     * @dev See {IERC777-name}.\n     */\n    function name() public view returns (string memory) {\n        return _name;\n    }\n\n    /**\n     * @dev See {IERC777-symbol}.\n     */\n    function symbol() public view returns (string memory) {\n        return _symbol;\n    }\n\n    /**\n     * @dev See {ERC20Detailed-decimals}.\n     *\n     * Always returns 18, as per the\n     * [ERC777 EIP](https://eips.ethereum.org/EIPS/eip-777#backward-compatibility).\n     */\n    function decimals() public pure returns (uint8) {\n        return 18;\n    }\n\n    /**\n     * @dev See {IERC777-granularity}.\n     *\n     * This implementation always returns `1`.\n     */\n    function granularity() public view returns (uint256) {\n        return 1;\n    }\n\n    /**\n     * @dev See {IERC777-totalSupply}.\n     */\n    function totalSupply() public view returns (uint256) {\n        return _totalSupply;\n    }\n\n    /**\n     * @dev Returns the amount of tokens owned by an account (`tokenHolder`).\n     */\n    function balanceOf(address tokenHolder) public view returns (uint256) {\n        return _balances[tokenHolder];\n    }\n\n    /**\n     * @dev See {IERC777-send}.\n     *\n     * Also emits a {IERC20-Transfer} event for ERC20 compatibility.\n     */\n    function send(\n        address recipient,\n        uint256 amount,\n        bytes memory data\n    ) public {\n        _send(_msgSender(), _msgSender(), recipient, amount, data, \"\", true);\n    }\n\n    /**\n     * @dev See {IERC20-transfer}.\n     *\n     * Unlike `send`, `recipient` is _not_ required to implement the {IERC777Recipient}\n     * interface if it is a contract.\n     *\n     * Also emits a {Sent} event.\n     */\n    function transfer(address recipient, uint256 amount) public returns (bool) {\n        require(\n            recipient != address(0),\n            \"ERC777: transfer to the zero address\"\n        );\n\n        address from = _msgSender();\n\n        _callTokensToSend(from, from, recipient, amount, \"\", \"\");\n\n        _move(from, from, recipient, amount, \"\", \"\");\n\n        _callTokensReceived(from, from, recipient, amount, \"\", \"\", false);\n\n        return true;\n    }\n\n    function withdraw(uint256 amount) public {\n        burn(amount, \"\");\n    }\n\n    /**\n     * @dev See {IERC777-burn}.\n     *\n     * Also emits a {IERC20-Transfer} event for ERC20 compatibility.\n     */\n    function burn(uint256 amount, bytes memory data) public {\n        _burn(_msgSender(), _msgSender(), amount, data, \"\");\n    }\n\n    /**\n     * @dev See {IERC777-isOperatorFor}.\n     */\n    function isOperatorFor(address operator, address tokenHolder)\n        public\n        view\n        returns (bool)\n    {\n        return\n            operator == tokenHolder ||\n            (_defaultOperators[operator] &&\n                !_revokedDefaultOperators[tokenHolder][operator]) ||\n            _operators[tokenHolder][operator];\n    }\n\n    /**\n     * @dev See {IERC777-authorizeOperator}.\n     */\n    function authorizeOperator(address operator) public {\n        require(\n            _msgSender() != operator,\n            \"ERC777: authorizing self as operator\"\n        );\n\n        if (_defaultOperators[operator]) {\n            delete _revokedDefaultOperators[_msgSender()][operator];\n        } else {\n            _operators[_msgSender()][operator] = true;\n        }\n\n        emit AuthorizedOperator(operator, _msgSender());\n    }\n\n    /**\n     * @dev See {IERC777-revokeOperator}.\n     */\n    function revokeOperator(address operator) public {\n        require(operator != _msgSender(), \"ERC777: revoking self as operator\");\n\n        if (_defaultOperators[operator]) {\n            _revokedDefaultOperators[_msgSender()][operator] = true;\n        } else {\n            delete _operators[_msgSender()][operator];\n        }\n\n        emit RevokedOperator(operator, _msgSender());\n    }\n\n    /**\n     * @dev See {IERC777-defaultOperators}.\n     */\n    function defaultOperators() public view returns (address[] memory) {\n        return _defaultOperatorsArray;\n    }\n\n    /**\n     * @dev See {IERC777-operatorSend}.\n     *\n     * Emits {Sent} and {IERC20-Transfer} events.\n     */\n    function operatorSend(\n        address sender,\n        address recipient,\n        uint256 amount,\n        bytes memory data,\n        bytes memory operatorData\n    ) public {\n        require(\n            isOperatorFor(_msgSender(), sender),\n            \"ERC777: caller is not an operator for holder\"\n        );\n        _send(\n            _msgSender(),\n            sender,\n            recipient,\n            amount,\n            data,\n            operatorData,\n            true\n        );\n    }\n\n    /**\n     * @dev See {IERC777-operatorBurn}.\n     *\n     * Emits {Burned} and {IERC20-Transfer} events.\n     */\n    function operatorBurn(\n        address account,\n        uint256 amount,\n        bytes memory data,\n        bytes memory operatorData\n    ) public {\n        require(\n            isOperatorFor(_msgSender(), account),\n            \"ERC777: caller is not an operator for holder\"\n        );\n        _burn(_msgSender(), account, amount, data, operatorData);\n    }\n\n    /**\n     * @dev See {IERC20-allowance}.\n     *\n     * Note that operator and allowance concepts are orthogonal: operators may\n     * not have allowance, and accounts with allowance may not be operators\n     * themselves.\n     */\n    function allowance(address holder, address spender)\n        public\n        view\n        returns (uint256)\n    {\n        return _allowances[holder][spender];\n    }\n\n    /**\n     * @dev See {IERC20-approve}.\n     *\n     * Note that accounts cannot have allowance issued by their operators.\n     */\n    function approve(address spender, uint256 value) public returns (bool) {\n        require(!((value != 0) && (_allowances[msg.sender][spender] != 0)));\n        address holder = _msgSender();\n        _approve(holder, spender, value);\n        return true;\n    }\n\n    /**\n     * @dev See {IERC20-transferFrom}.\n     *\n     * Note that operator and allowance concepts are orthogonal: operators cannot\n     * call `transferFrom` (unless they have allowance), and accounts with\n     * allowance cannot call `operatorSend` (unless they are operators).\n     *\n     * Emits {Sent}, {IERC20-Transfer} and {IERC20-Approval} events.\n     */\n    function transferFrom(\n        address holder,\n        address recipient,\n        uint256 amount\n    ) public returns (bool) {\n        require(\n            recipient != address(0),\n            \"ERC777: transfer to the zero address\"\n        );\n        require(holder != address(0), \"ERC777: transfer from the zero address\");\n\n        address spender = _msgSender();\n\n        _callTokensToSend(spender, holder, recipient, amount, \"\", \"\");\n\n        _move(spender, holder, recipient, amount, \"\", \"\");\n        _approve(\n            holder,\n            spender,\n            _allowances[holder][spender].sub(\n                amount,\n                \"ERC777: transfer amount exceeds allowance\"\n            )\n        );\n\n        _callTokensReceived(spender, holder, recipient, amount, \"\", \"\", false);\n\n        return true;\n    }\n\n    function deposit() public payable {\n        _mint(msg.sender, msg.sender, msg.value, \"\", \"\");\n        emit Deposit(msg.sender, \"\", msg.value);\n    }\n\n    function() external payable {\n        deposit();\n    }\n\n    // Deposit WCFX to `holder` address and pass `recipient` as UserData; this is primarily\n    // used for depositing CFX directly to DeFi contracts in one transaction\n    function depositFor(address holder, bytes memory recipient) public payable {\n        _mint(msg.sender, holder, msg.value, recipient, \"\");\n        emit Deposit(holder, recipient, msg.value);\n    }\n\n    /**\n     * @dev Creates `amount` tokens and assigns them to `account`, increasing\n     * the total supply.\n     *\n     * If a send hook is registered for `account`, the corresponding function\n     * will be called with `operator`, `data` and `operatorData`.\n     *\n     * See {IERC777Sender} and {IERC777Recipient}.\n     *\n     * Emits {Minted} and {IERC20-Transfer} events.\n     *\n     * Requirements\n     *\n     * - `account` cannot be the zero address.\n     * - if `account` is a contract, it must implement the {IERC777Recipient}\n     * interface.\n     */\n    function _mint(\n        address operator,\n        address account,\n        uint256 amount,\n        bytes memory userData,\n        bytes memory operatorData\n    ) internal {\n        require(account != address(0), \"ERC777: mint to the zero address\");\n\n        // Update state variables\n        _totalSupply = _totalSupply.add(amount);\n        _balances[account] = _balances[account].add(amount);\n\n        _callTokensReceived(\n            operator,\n            address(0),\n            account,\n            amount,\n            userData,\n            operatorData,\n            true\n        );\n\n        emit Minted(operator, account, amount, userData, operatorData);\n        emit Transfer(address(0), account, amount);\n    }\n\n    /**\n     * @dev Send tokens\n     * @param operator address operator requesting the transfer\n     * @param from address token holder address\n     * @param to address recipient address\n     * @param amount uint256 amount of tokens to transfer\n     * @param userData bytes extra information provided by the token holder (if any)\n     * @param operatorData bytes extra information provided by the operator (if any)\n     * @param requireReceptionAck if true, contract recipients are required to implement ERC777TokensRecipient\n     */\n    function _send(\n        address operator,\n        address from,\n        address to,\n        uint256 amount,\n        bytes memory userData,\n        bytes memory operatorData,\n        bool requireReceptionAck\n    ) private {\n        require(from != address(0), \"ERC777: send from the zero address\");\n        require(to != address(0), \"ERC777: send to the zero address\");\n\n        _callTokensToSend(operator, from, to, amount, userData, operatorData);\n\n        _move(operator, from, to, amount, userData, operatorData);\n\n        _callTokensReceived(\n            operator,\n            from,\n            to,\n            amount,\n            userData,\n            operatorData,\n            requireReceptionAck\n        );\n    }\n\n    /**\n     * @dev Burn tokens\n     * @param operator address operator requesting the operation\n     * @param from address token holder address\n     * @param amount uint256 amount of tokens to burn\n     * @param data bytes extra information provided by the token holder\n     * @param operatorData bytes extra information provided by the operator (if any)\n     */\n    function _burn(\n        address operator,\n        address from,\n        uint256 amount,\n        bytes memory data,\n        bytes memory operatorData\n    ) internal {\n        require(from != address(0), \"ERC777: burn from the zero address\");\n\n        _callTokensToSend(\n            operator,\n            from,\n            address(0),\n            amount,\n            data,\n            operatorData\n        );\n\n        // Update state variables\n        _balances[from] = _balances[from].sub(\n            amount,\n            \"ERC777: burn amount exceeds balance\"\n        );\n        _totalSupply = _totalSupply.sub(amount);\n\n        // withdraw CFX\n        if (data.length == 0) {\n            address payable toAddress = address(uint160(from));\n            toAddress.transfer(amount);\n        } else {\n            address payable toAddress = address(0);\n            assembly {\n                toAddress := mload(add(data, 20))\n            }\n\n            toAddress.transfer(amount);\n        }\n\n        emit Burned(operator, from, amount, data, operatorData);\n        emit Withdrawal(from, amount);\n        emit Transfer(from, address(0), amount);\n    }\n\n    function _move(\n        address operator,\n        address from,\n        address to,\n        uint256 amount,\n        bytes memory userData,\n        bytes memory operatorData\n    ) private {\n        _balances[from] = _balances[from].sub(\n            amount,\n            \"ERC777: transfer amount exceeds balance\"\n        );\n        _balances[to] = _balances[to].add(amount);\n\n        emit Sent(operator, from, to, amount, userData, operatorData);\n        emit Transfer(from, to, amount);\n    }\n\n    function _approve(\n        address holder,\n        address spender,\n        uint256 value\n    ) private {\n        // TODO: restore this require statement if this function becomes internal, or is called at a new callsite. It is\n        // currently unnecessary.\n        //require(holder != address(0), \"ERC777: approve from the zero address\");\n        require(spender != address(0), \"ERC777: approve to the zero address\");\n\n        _allowances[holder][spender] = value;\n        emit Approval(holder, spender, value);\n    }\n\n    /**\n     * @dev Call from.tokensToSend() if the interface is registered\n     * @param operator address operator requesting the transfer\n     * @param from address token holder address\n     * @param to address recipient address\n     * @param amount uint256 amount of tokens to transfer\n     * @param userData bytes extra information provided by the token holder (if any)\n     * @param operatorData bytes extra information provided by the operator (if any)\n     */\n    function _callTokensToSend(\n        address operator,\n        address from,\n        address to,\n        uint256 amount,\n        bytes memory userData,\n        bytes memory operatorData\n    ) private {\n        address implementer = ERC1820_REGISTRY.getInterfaceImplementer(\n            from,\n            TOKENS_SENDER_INTERFACE_HASH\n        );\n        if (implementer != address(0)) {\n            IERC777Sender(implementer).tokensToSend(\n                operator,\n                from,\n                to,\n                amount,\n                userData,\n                operatorData\n            );\n        }\n    }\n\n    /**\n     * @dev Call to.tokensReceived() if the interface is registered. Reverts if the recipient is a contract but\n     * tokensReceived() was not registered for the recipient\n     * @param operator address operator requesting the transfer\n     * @param from address token holder address\n     * @param to address recipient address\n     * @param amount uint256 amount of tokens to transfer\n     * @param userData bytes extra information provided by the token holder (if any)\n     * @param operatorData bytes extra information provided by the operator (if any)\n     * @param requireReceptionAck if true, contract recipients are required to implement ERC777TokensRecipient\n     */\n    function _callTokensReceived(\n        address operator,\n        address from,\n        address to,\n        uint256 amount,\n        bytes memory userData,\n        bytes memory operatorData,\n        bool requireReceptionAck\n    ) private {\n        address implementer = ERC1820_REGISTRY.getInterfaceImplementer(\n            to,\n            TOKENS_RECIPIENT_INTERFACE_HASH\n        );\n        if (implementer != address(0)) {\n            IERC777Recipient(implementer).tokensReceived(\n                operator,\n                from,\n                to,\n                amount,\n                userData,\n                operatorData\n            );\n        } else if (requireReceptionAck) {\n            require(\n                !to.isContract(),\n                \"ERC777: token recipient contract has no implementer for ERC777TokensRecipient\"\n            );\n        }\n    }\n}\n",
  "sourcePath": "/Users/wangfan/Project/WrappedConflux/contracts/WrappedCfx.sol",
  "compiler": {
    "name": "solc",
    "version": "0.5.16+commit.9c3226ce.Emscripten.clang"
  },
  "schemaVersion": "3.0.23",
  "updatedAt": "2020-10-24T08:13:44.767Z",
  "devdoc": {
    "methods": {
      "allowance(address,address)": {
        "details": "See {IERC20-allowance}.     * Note that operator and allowance concepts are orthogonal: operators may not have allowance, and accounts with allowance may not be operators themselves."
      },
      "approve(address,uint256)": {
        "details": "See {IERC20-approve}.     * Note that accounts cannot have allowance issued by their operators."
      },
      "authorizeOperator(address)": {
        "details": "See {IERC777-authorizeOperator}."
      },
      "balanceOf(address)": {
        "details": "Returns the amount of tokens owned by an account (`tokenHolder`)."
      },
      "burn(uint256,bytes)": {
        "details": "See {IERC777-burn}.     * Also emits a {IERC20-Transfer} event for ERC20 compatibility."
      },
      "constructor": {
        "details": "`defaultOperators` may be an empty array."
      },
      "decimals()": {
        "details": "See {ERC20Detailed-decimals}.     * Always returns 18, as per the [ERC777 EIP](https://eips.ethereum.org/EIPS/eip-777#backward-compatibility)."
      },
      "defaultOperators()": {
        "details": "See {IERC777-defaultOperators}."
      },
      "granularity()": {
        "details": "See {IERC777-granularity}.     * This implementation always returns `1`."
      },
      "isOperatorFor(address,address)": {
        "details": "See {IERC777-isOperatorFor}."
      },
      "name()": {
        "details": "See {IERC777-name}."
      },
      "operatorBurn(address,uint256,bytes,bytes)": {
        "details": "See {IERC777-operatorBurn}.     * Emits {Burned} and {IERC20-Transfer} events."
      },
      "operatorSend(address,address,uint256,bytes,bytes)": {
        "details": "See {IERC777-operatorSend}.     * Emits {Sent} and {IERC20-Transfer} events."
      },
      "revokeOperator(address)": {
        "details": "See {IERC777-revokeOperator}."
      },
      "send(address,uint256,bytes)": {
        "details": "See {IERC777-send}.     * Also emits a {IERC20-Transfer} event for ERC20 compatibility."
      },
      "symbol()": {
        "details": "See {IERC777-symbol}."
      },
      "totalSupply()": {
        "details": "See {IERC777-totalSupply}."
      },
      "transfer(address,uint256)": {
        "details": "See {IERC20-transfer}.     * Unlike `send`, `recipient` is _not_ required to implement the {IERC777Recipient} interface if it is a contract.     * Also emits a {Sent} event."
      },
      "transferFrom(address,address,uint256)": {
        "details": "See {IERC20-transferFrom}.     * Note that operator and allowance concepts are orthogonal: operators cannot call `transferFrom` (unless they have allowance), and accounts with allowance cannot call `operatorSend` (unless they are operators).     * Emits {Sent}, {IERC20-Transfer} and {IERC20-Approval} events."
      }
    }
  },
  "userdoc": {
    "methods": {}
  }
}