{
  "contractName": "WrappedCfx",
  "abi": [
    {
      "constant": true,
      "inputs": [
        {
          "internalType": "uint256",
          "name": "",
          "type": "uint256"
        }
      ],
      "name": "_account_list",
      "outputs": [
        {
          "internalType": "address",
          "name": "",
          "type": "address"
        }
      ],
      "payable": false,
      "stateMutability": "view",
      "type": "function"
    },
    {
      "constant": false,
      "inputs": [],
      "name": "unpause",
      "outputs": [],
      "payable": false,
      "stateMutability": "nonpayable",
      "type": "function"
    },
    {
      "constant": true,
      "inputs": [
        {
          "internalType": "address",
          "name": "account",
          "type": "address"
        }
      ],
      "name": "isPauser",
      "outputs": [
        {
          "internalType": "bool",
          "name": "",
          "type": "bool"
        }
      ],
      "payable": false,
      "stateMutability": "view",
      "type": "function"
    },
    {
      "constant": true,
      "inputs": [],
      "name": "paused",
      "outputs": [
        {
          "internalType": "bool",
          "name": "",
          "type": "bool"
        }
      ],
      "payable": false,
      "stateMutability": "view",
      "type": "function"
    },
    {
      "constant": false,
      "inputs": [],
      "name": "renouncePauser",
      "outputs": [],
      "payable": false,
      "stateMutability": "nonpayable",
      "type": "function"
    },
    {
      "constant": true,
      "inputs": [],
      "name": "in_migration",
      "outputs": [
        {
          "internalType": "bool",
          "name": "",
          "type": "bool"
        }
      ],
      "payable": false,
      "stateMutability": "view",
      "type": "function"
    },
    {
      "constant": false,
      "inputs": [
        {
          "internalType": "address",
          "name": "account",
          "type": "address"
        }
      ],
      "name": "addPauser",
      "outputs": [],
      "payable": false,
      "stateMutability": "nonpayable",
      "type": "function"
    },
    {
      "constant": false,
      "inputs": [],
      "name": "pause",
      "outputs": [],
      "payable": false,
      "stateMutability": "nonpayable",
      "type": "function"
    },
    {
      "constant": true,
      "inputs": [],
      "name": "_creator",
      "outputs": [
        {
          "internalType": "address",
          "name": "",
          "type": "address"
        }
      ],
      "payable": false,
      "stateMutability": "view",
      "type": "function"
    },
    {
      "inputs": [
        {
          "internalType": "address[]",
          "name": "defaultOperators",
          "type": "address[]"
        }
      ],
      "payable": false,
      "stateMutability": "nonpayable",
      "type": "constructor"
    },
    {
      "payable": true,
      "stateMutability": "payable",
      "type": "fallback"
    },
    {
      "anonymous": false,
      "inputs": [
        {
          "indexed": true,
          "internalType": "address",
          "name": "dst",
          "type": "address"
        },
        {
          "indexed": false,
          "internalType": "uint256",
          "name": "wad",
          "type": "uint256"
        }
      ],
      "name": "Deposit",
      "type": "event"
    },
    {
      "anonymous": false,
      "inputs": [
        {
          "indexed": true,
          "internalType": "address",
          "name": "src",
          "type": "address"
        },
        {
          "indexed": false,
          "internalType": "uint256",
          "name": "wad",
          "type": "uint256"
        }
      ],
      "name": "Withdrawal",
      "type": "event"
    },
    {
      "anonymous": false,
      "inputs": [
        {
          "indexed": false,
          "internalType": "address",
          "name": "account",
          "type": "address"
        }
      ],
      "name": "Paused",
      "type": "event"
    },
    {
      "anonymous": false,
      "inputs": [
        {
          "indexed": false,
          "internalType": "address",
          "name": "account",
          "type": "address"
        }
      ],
      "name": "Unpaused",
      "type": "event"
    },
    {
      "anonymous": false,
      "inputs": [
        {
          "indexed": true,
          "internalType": "address",
          "name": "account",
          "type": "address"
        }
      ],
      "name": "PauserAdded",
      "type": "event"
    },
    {
      "anonymous": false,
      "inputs": [
        {
          "indexed": true,
          "internalType": "address",
          "name": "account",
          "type": "address"
        }
      ],
      "name": "PauserRemoved",
      "type": "event"
    },
    {
      "anonymous": false,
      "inputs": [
        {
          "indexed": true,
          "internalType": "address",
          "name": "from",
          "type": "address"
        },
        {
          "indexed": true,
          "internalType": "address",
          "name": "to",
          "type": "address"
        },
        {
          "indexed": false,
          "internalType": "uint256",
          "name": "value",
          "type": "uint256"
        }
      ],
      "name": "Transfer",
      "type": "event"
    },
    {
      "anonymous": false,
      "inputs": [
        {
          "indexed": true,
          "internalType": "address",
          "name": "owner",
          "type": "address"
        },
        {
          "indexed": true,
          "internalType": "address",
          "name": "spender",
          "type": "address"
        },
        {
          "indexed": false,
          "internalType": "uint256",
          "name": "value",
          "type": "uint256"
        }
      ],
      "name": "Approval",
      "type": "event"
    },
    {
      "anonymous": false,
      "inputs": [
        {
          "indexed": true,
          "internalType": "address",
          "name": "operator",
          "type": "address"
        },
        {
          "indexed": true,
          "internalType": "address",
          "name": "from",
          "type": "address"
        },
        {
          "indexed": true,
          "internalType": "address",
          "name": "to",
          "type": "address"
        },
        {
          "indexed": false,
          "internalType": "uint256",
          "name": "amount",
          "type": "uint256"
        },
        {
          "indexed": false,
          "internalType": "bytes",
          "name": "data",
          "type": "bytes"
        },
        {
          "indexed": false,
          "internalType": "bytes",
          "name": "operatorData",
          "type": "bytes"
        }
      ],
      "name": "Sent",
      "type": "event"
    },
    {
      "anonymous": false,
      "inputs": [
        {
          "indexed": true,
          "internalType": "address",
          "name": "operator",
          "type": "address"
        },
        {
          "indexed": true,
          "internalType": "address",
          "name": "to",
          "type": "address"
        },
        {
          "indexed": false,
          "internalType": "uint256",
          "name": "amount",
          "type": "uint256"
        },
        {
          "indexed": false,
          "internalType": "bytes",
          "name": "data",
          "type": "bytes"
        },
        {
          "indexed": false,
          "internalType": "bytes",
          "name": "operatorData",
          "type": "bytes"
        }
      ],
      "name": "Minted",
      "type": "event"
    },
    {
      "anonymous": false,
      "inputs": [
        {
          "indexed": true,
          "internalType": "address",
          "name": "operator",
          "type": "address"
        },
        {
          "indexed": true,
          "internalType": "address",
          "name": "from",
          "type": "address"
        },
        {
          "indexed": false,
          "internalType": "uint256",
          "name": "amount",
          "type": "uint256"
        },
        {
          "indexed": false,
          "internalType": "bytes",
          "name": "data",
          "type": "bytes"
        },
        {
          "indexed": false,
          "internalType": "bytes",
          "name": "operatorData",
          "type": "bytes"
        }
      ],
      "name": "Burned",
      "type": "event"
    },
    {
      "anonymous": false,
      "inputs": [
        {
          "indexed": true,
          "internalType": "address",
          "name": "operator",
          "type": "address"
        },
        {
          "indexed": true,
          "internalType": "address",
          "name": "tokenHolder",
          "type": "address"
        }
      ],
      "name": "AuthorizedOperator",
      "type": "event"
    },
    {
      "anonymous": false,
      "inputs": [
        {
          "indexed": true,
          "internalType": "address",
          "name": "operator",
          "type": "address"
        },
        {
          "indexed": true,
          "internalType": "address",
          "name": "tokenHolder",
          "type": "address"
        }
      ],
      "name": "RevokedOperator",
      "type": "event"
    },
    {
      "constant": true,
      "inputs": [],
      "name": "name",
      "outputs": [
        {
          "internalType": "string",
          "name": "",
          "type": "string"
        }
      ],
      "payable": false,
      "stateMutability": "view",
      "type": "function"
    },
    {
      "constant": true,
      "inputs": [],
      "name": "symbol",
      "outputs": [
        {
          "internalType": "string",
          "name": "",
          "type": "string"
        }
      ],
      "payable": false,
      "stateMutability": "view",
      "type": "function"
    },
    {
      "constant": true,
      "inputs": [],
      "name": "decimals",
      "outputs": [
        {
          "internalType": "uint8",
          "name": "",
          "type": "uint8"
        }
      ],
      "payable": false,
      "stateMutability": "pure",
      "type": "function"
    },
    {
      "constant": true,
      "inputs": [],
      "name": "granularity",
      "outputs": [
        {
          "internalType": "uint256",
          "name": "",
          "type": "uint256"
        }
      ],
      "payable": false,
      "stateMutability": "view",
      "type": "function"
    },
    {
      "constant": true,
      "inputs": [],
      "name": "totalSupply",
      "outputs": [
        {
          "internalType": "uint256",
          "name": "",
          "type": "uint256"
        }
      ],
      "payable": false,
      "stateMutability": "view",
      "type": "function"
    },
    {
      "constant": true,
      "inputs": [
        {
          "internalType": "address",
          "name": "tokenHolder",
          "type": "address"
        }
      ],
      "name": "balanceOf",
      "outputs": [
        {
          "internalType": "uint256",
          "name": "",
          "type": "uint256"
        }
      ],
      "payable": false,
      "stateMutability": "view",
      "type": "function"
    },
    {
      "constant": false,
      "inputs": [
        {
          "internalType": "address",
          "name": "recipient",
          "type": "address"
        },
        {
          "internalType": "uint256",
          "name": "amount",
          "type": "uint256"
        },
        {
          "internalType": "bytes",
          "name": "data",
          "type": "bytes"
        }
      ],
      "name": "send",
      "outputs": [],
      "payable": false,
      "stateMutability": "nonpayable",
      "type": "function"
    },
    {
      "constant": false,
      "inputs": [
        {
          "internalType": "address",
          "name": "recipient",
          "type": "address"
        },
        {
          "internalType": "uint256",
          "name": "amount",
          "type": "uint256"
        }
      ],
      "name": "transfer",
      "outputs": [
        {
          "internalType": "bool",
          "name": "",
          "type": "bool"
        }
      ],
      "payable": false,
      "stateMutability": "nonpayable",
      "type": "function"
    },
    {
      "constant": false,
      "inputs": [
        {
          "internalType": "uint256",
          "name": "amount",
          "type": "uint256"
        }
      ],
      "name": "withdraw",
      "outputs": [],
      "payable": false,
      "stateMutability": "nonpayable",
      "type": "function"
    },
    {
      "constant": false,
      "inputs": [
        {
          "internalType": "uint256",
          "name": "amount",
          "type": "uint256"
        },
        {
          "internalType": "bytes",
          "name": "data",
          "type": "bytes"
        }
      ],
      "name": "burn",
      "outputs": [],
      "payable": false,
      "stateMutability": "nonpayable",
      "type": "function"
    },
    {
      "constant": true,
      "inputs": [
        {
          "internalType": "address",
          "name": "operator",
          "type": "address"
        },
        {
          "internalType": "address",
          "name": "tokenHolder",
          "type": "address"
        }
      ],
      "name": "isOperatorFor",
      "outputs": [
        {
          "internalType": "bool",
          "name": "",
          "type": "bool"
        }
      ],
      "payable": false,
      "stateMutability": "view",
      "type": "function"
    },
    {
      "constant": false,
      "inputs": [
        {
          "internalType": "address",
          "name": "operator",
          "type": "address"
        }
      ],
      "name": "authorizeOperator",
      "outputs": [],
      "payable": false,
      "stateMutability": "nonpayable",
      "type": "function"
    },
    {
      "constant": false,
      "inputs": [
        {
          "internalType": "address",
          "name": "operator",
          "type": "address"
        }
      ],
      "name": "revokeOperator",
      "outputs": [],
      "payable": false,
      "stateMutability": "nonpayable",
      "type": "function"
    },
    {
      "constant": true,
      "inputs": [],
      "name": "defaultOperators",
      "outputs": [
        {
          "internalType": "address[]",
          "name": "",
          "type": "address[]"
        }
      ],
      "payable": false,
      "stateMutability": "view",
      "type": "function"
    },
    {
      "constant": false,
      "inputs": [
        {
          "internalType": "address",
          "name": "sender",
          "type": "address"
        },
        {
          "internalType": "address",
          "name": "recipient",
          "type": "address"
        },
        {
          "internalType": "uint256",
          "name": "amount",
          "type": "uint256"
        },
        {
          "internalType": "bytes",
          "name": "data",
          "type": "bytes"
        },
        {
          "internalType": "bytes",
          "name": "operatorData",
          "type": "bytes"
        }
      ],
      "name": "operatorSend",
      "outputs": [],
      "payable": false,
      "stateMutability": "nonpayable",
      "type": "function"
    },
    {
      "constant": false,
      "inputs": [
        {
          "internalType": "address",
          "name": "account",
          "type": "address"
        },
        {
          "internalType": "uint256",
          "name": "amount",
          "type": "uint256"
        },
        {
          "internalType": "bytes",
          "name": "data",
          "type": "bytes"
        },
        {
          "internalType": "bytes",
          "name": "operatorData",
          "type": "bytes"
        }
      ],
      "name": "operatorBurn",
      "outputs": [],
      "payable": false,
      "stateMutability": "nonpayable",
      "type": "function"
    },
    {
      "constant": true,
      "inputs": [
        {
          "internalType": "address",
          "name": "holder",
          "type": "address"
        },
        {
          "internalType": "address",
          "name": "spender",
          "type": "address"
        }
      ],
      "name": "allowance",
      "outputs": [
        {
          "internalType": "uint256",
          "name": "",
          "type": "uint256"
        }
      ],
      "payable": false,
      "stateMutability": "view",
      "type": "function"
    },
    {
      "constant": false,
      "inputs": [
        {
          "internalType": "address",
          "name": "spender",
          "type": "address"
        },
        {
          "internalType": "uint256",
          "name": "value",
          "type": "uint256"
        }
      ],
      "name": "approve",
      "outputs": [
        {
          "internalType": "bool",
          "name": "",
          "type": "bool"
        }
      ],
      "payable": false,
      "stateMutability": "nonpayable",
      "type": "function"
    },
    {
      "constant": false,
      "inputs": [
        {
          "internalType": "address",
          "name": "holder",
          "type": "address"
        },
        {
          "internalType": "address",
          "name": "recipient",
          "type": "address"
        },
        {
          "internalType": "uint256",
          "name": "amount",
          "type": "uint256"
        }
      ],
      "name": "transferFrom",
      "outputs": [
        {
          "internalType": "bool",
          "name": "",
          "type": "bool"
        }
      ],
      "payable": false,
      "stateMutability": "nonpayable",
      "type": "function"
    },
    {
      "constant": false,
      "inputs": [],
      "name": "deposit",
      "outputs": [],
      "payable": true,
      "stateMutability": "payable",
      "type": "function"
    },
    {
      "constant": false,
      "inputs": [],
      "name": "finishMigration",
      "outputs": [],
      "payable": false,
      "stateMutability": "nonpayable",
      "type": "function"
    },
    {
      "constant": false,
      "inputs": [
        {
          "internalType": "address",
          "name": "account",
          "type": "address"
        }
      ],
      "name": "addAccount",
      "outputs": [],
      "payable": false,
      "stateMutability": "nonpayable",
      "type": "function"
    },
    {
      "constant": true,
      "inputs": [],
      "name": "accountCount",
      "outputs": [
        {
          "internalType": "uint256",
          "name": "",
          "type": "uint256"
        }
      ],
      "payable": false,
      "stateMutability": "view",
      "type": "function"
    },
    {
      "constant": false,
      "inputs": [
        {
          "internalType": "uint256",
          "name": "newTotalSupply",
          "type": "uint256"
        }
      ],
      "name": "setTotalSupply",
      "outputs": [],
      "payable": false,
      "stateMutability": "nonpayable",
      "type": "function"
    },
    {
      "constant": false,
      "inputs": [
        {
          "internalType": "address",
          "name": "account",
          "type": "address"
        },
        {
          "internalType": "uint256",
          "name": "balance",
          "type": "uint256"
        }
      ],
      "name": "setBalance",
      "outputs": [],
      "payable": false,
      "stateMutability": "nonpayable",
      "type": "function"
    },
    {
      "constant": false,
      "inputs": [
        {
          "internalType": "address",
          "name": "holder",
          "type": "address"
        },
        {
          "internalType": "address",
          "name": "spender",
          "type": "address"
        },
        {
          "internalType": "uint256",
          "name": "amount",
          "type": "uint256"
        }
      ],
      "name": "setAllowance",
      "outputs": [],
      "payable": false,
      "stateMutability": "nonpayable",
      "type": "function"
    },
    {
      "constant": false,
      "inputs": [
        {
          "internalType": "address",
          "name": "tokenHolder",
          "type": "address"
        },
        {
          "internalType": "address",
          "name": "operator",
          "type": "address"
        }
      ],
      "name": "setOpeartor",
      "outputs": [],
      "payable": false,
      "stateMutability": "nonpayable",
      "type": "function"
    },
    {
      "constant": false,
      "inputs": [
        {
          "internalType": "address",
          "name": "tokenHolder",
          "type": "address"
        },
        {
          "internalType": "address",
          "name": "operator",
          "type": "address"
        }
      ],
      "name": "setRevokedDefaultOperator",
      "outputs": [],
      "payable": false,
      "stateMutability": "nonpayable",
      "type": "function"
    }
  ],
  "bytecode": "0x60806040523480156200001157600080fd5b5060405162003b4a38038062003b4a833981810160405260208110156200003757600080fd5b81019080805160405193929190846401000000008211156200005857600080fd5b9083019060208201858111156200006e57600080fd5b82518660208202830111640100000000821117156200008c57600080fd5b82525081516020918201928201910280838360005b83811015620000bb578181015183820152602001620000a1565b50505050905001604052505050620000eb620000dc6200036c60201b60201c565b6001600160e01b036200037116565b6001805460ff1916905580516200010a90600490602084019062000577565b5060005b600454811015620001a357600160056000600484815481106200012d57fe5b6000918252602080832091909101546001600160a01b031683528201929092526040019020805460ff1916911515919091179055600480546200019a9190839081106200017657fe5b6000918252602090912001546001600160a01b03166001600160e01b03620003c316565b6001016200010e565b50604080517f455243373737546f6b656e0000000000000000000000000000000000000000008152815190819003600b0181207f29965a1d000000000000000000000000000000000000000000000000000000008252306004830181905260248301919091526044820152905173866aca87ff33a0ae05d2164b3d999a804f583222916329965a1d91606480830192600092919082900301818387803b1580156200024d57600080fd5b505af115801562000262573d6000803e3d6000fd5b5050604080517f4552433230546f6b656e000000000000000000000000000000000000000000008152815190819003600a0181207f29965a1d000000000000000000000000000000000000000000000000000000008252306004830181905260248301919091526044820152905173866aca87ff33a0ae05d2164b3d999a804f58322293506329965a1d9250606480830192600092919082900301818387803b1580156200030f57600080fd5b505af115801562000324573d6000803e3d6000fd5b50505050620003386200036c60201b60201c565b600980546001600160a01b0319166001600160a01b039290921691909117905550600c805460ff1916600117905562000608565b335b90565b6200038c8160006200044d60201b620031a31790919060201c565b6040516001600160a01b038216907f6719d08c1888103bea251a4ed56406bd0c3e69723c8a1686e017e7bbe159b6f890600090a250565b6001600160a01b0381166000908152600b602052604090205460ff166200044a576001600160a01b0381166000818152600b60205260408120805460ff19166001908117909155600a805491820181559091527fc65a7bb8d6351c1cf70c95a316cc6a92839c986682d98bc35f958f4883f9d2a80180546001600160a01b03191690911790555b50565b6200046282826001600160e01b03620004f416565b15620004cf57604080517f08c379a000000000000000000000000000000000000000000000000000000000815260206004820152601f60248201527f526f6c65733a206163636f756e7420616c72656164792068617320726f6c6500604482015290519081900360640190fd5b6001600160a01b0316600090815260209190915260409020805460ff19166001179055565b60006001600160a01b03821662000557576040517f08c379a000000000000000000000000000000000000000000000000000000000815260040180806020018281038252602281526020018062003b286022913960400191505060405180910390fd5b506001600160a01b03166000908152602091909152604090205460ff1690565b828054828255906000526020600020908101928215620005cf579160200282015b82811115620005cf57825182546001600160a01b0319166001600160a01b0390911617825560209092019160019091019062000598565b50620005dd929150620005e1565b5090565b6200036e91905b80821115620005dd5780546001600160a01b0319168155600101620005e8565b61351080620006186000396000f3fe60806040526004361061021a5760003560e01c806382dc1ec411610123578063d95b6371116100ab578063e89b0e1e1161006f578063e89b0e1e146109c0578063f7ea7a3d146109f3578063fad8b32a14610a1d578063fc673c4f14610a50578063fe9d930314610b9b5761021a565b8063d95b6371146108b9578063da46098c146108f4578063dd62ed3e14610937578063e30443bc14610972578063e4af29fc146109ab5761021a565b806395d89b41116100f257806395d89b41146107905780639bd9bbc6146107a5578063a9059cbb1461086b578063bc8bde64146108a4578063d0e30db01461021a5761021a565b806382dc1ec4146107005780638456cb591461073357806388d761f214610748578063959b8c3f1461075d5761021a565b80633f4ba83a116101a65780635c975abb116101755780635c975abb1461053857806362ad1b831461054d5780636ef8d66d146106a357806370a08231146106b8578063776b92aa146106eb5761021a565b80633f4ba83a146104a057806346e87df6146104b557806346fbf68e146104f0578063556f0dc7146105235761021a565b806318160ddd116101ed57806318160ddd1461039b57806323b872dd146103c25780632e1a7d4d14610405578063313ce5671461042f5780633a24f9071461045a5761021a565b8063059f31101461022457806306e485381461025f57806306fdde03146102c4578063095ea7b31461034e575b610222610c53565b005b34801561023057600080fd5b506102226004803603604081101561024757600080fd5b506001600160a01b0381358116916020013516610cb6565b34801561026b57600080fd5b50610274610e57565b60408051602080825283518183015283519192839290830191858101910280838360005b838110156102b0578181015183820152602001610298565b505050509050019250505060405180910390f35b3480156102d057600080fd5b506102d9610eb9565b6040805160208082528351818301528351919283929083019185019080838360005b838110156103135781810151838201526020016102fb565b50505050905090810190601f1680156103405780820380516001836020036101000a031916815260200191505b509250505060405180910390f35b34801561035a57600080fd5b506103876004803603604081101561037157600080fd5b506001600160a01b038135169060200135610ee2565b604080519115158252519081900360200190f35b3480156103a757600080fd5b506103b0610f8c565b60408051918252519081900360200190f35b3480156103ce57600080fd5b50610387600480360360608110156103e557600080fd5b506001600160a01b03813581169160208101359091169060400135610f92565b34801561041157600080fd5b506102226004803603602081101561042857600080fd5b5035611161565b34801561043b57600080fd5b5061044461117d565b6040805160ff9092168252519081900360200190f35b34801561046657600080fd5b506104846004803603602081101561047d57600080fd5b5035611182565b604080516001600160a01b039092168252519081900360200190f35b3480156104ac57600080fd5b506102226111a9565b3480156104c157600080fd5b50610222600480360360408110156104d857600080fd5b506001600160a01b0381358116916020013516611292565b3480156104fc57600080fd5b506103876004803603602081101561051357600080fd5b50356001600160a01b0316611464565b34801561052f57600080fd5b506103b061147c565b34801561054457600080fd5b50610387611481565b34801561055957600080fd5b50610222600480360360a081101561057057600080fd5b6001600160a01b03823581169260208101359091169160408201359190810190608081016060820135600160201b8111156105aa57600080fd5b8201836020820111156105bc57600080fd5b803590602001918460018302840111600160201b831117156105dd57600080fd5b91908080601f0160208091040260200160405190810160405280939291908181526020018383808284376000920191909152509295949360208101935035915050600160201b81111561062f57600080fd5b82018360208201111561064157600080fd5b803590602001918460018302840111600160201b8311171561066257600080fd5b91908080601f01602080910402602001604051908101604052809392919081815260200183838082843760009201919091525092955061148a945050505050565b3480156106af57600080fd5b5061022261153f565b3480156106c457600080fd5b506103b0600480360360208110156106db57600080fd5b50356001600160a01b0316611551565b3480156106f757600080fd5b5061038761156c565b34801561070c57600080fd5b506102226004803603602081101561072357600080fd5b50356001600160a01b0316611575565b34801561073f57600080fd5b506102226115c4565b34801561075457600080fd5b5061022261168a565b34801561076957600080fd5b506102226004803603602081101561078057600080fd5b50356001600160a01b03166116fd565b34801561079c57600080fd5b506102d96118aa565b3480156107b157600080fd5b50610222600480360360608110156107c857600080fd5b6001600160a01b0382351691602081013591810190606081016040820135600160201b8111156107f757600080fd5b82018360208201111561080957600080fd5b803590602001918460018302840111600160201b8311171561082a57600080fd5b91908080601f0160208091040260200160405190810160405280939291908181526020018383808284376000920191909152509295506118c8945050505050565b34801561087757600080fd5b506103876004803603604081101561088e57600080fd5b506001600160a01b038135169060200135611945565b3480156108b057600080fd5b50610484611a6a565b3480156108c557600080fd5b50610387600480360360408110156108dc57600080fd5b506001600160a01b0381358116916020013516611a79565b34801561090057600080fd5b506102226004803603606081101561091757600080fd5b506001600160a01b03813581169160208101359091169060400135611b1b565b34801561094357600080fd5b506103b06004803603604081101561095a57600080fd5b506001600160a01b0381358116916020013516611c20565b34801561097e57600080fd5b506102226004803603604081101561099557600080fd5b506001600160a01b038135169060200135611c4b565b3480156109b757600080fd5b506103b0611d61565b3480156109cc57600080fd5b50610222600480360360208110156109e357600080fd5b50356001600160a01b0316611d67565b3480156109ff57600080fd5b5061022260048036036020811015610a1657600080fd5b5035611ded565b348015610a2957600080fd5b5061022260048036036020811015610a4057600080fd5b50356001600160a01b0316611eec565b348015610a5c57600080fd5b5061022260048036036080811015610a7357600080fd5b6001600160a01b0382351691602081013591810190606081016040820135600160201b811115610aa257600080fd5b820183602082011115610ab457600080fd5b803590602001918460018302840111600160201b83111715610ad557600080fd5b91908080601f0160208091040260200160405190810160405280939291908181526020018383808284376000920191909152509295949360208101935035915050600160201b811115610b2757600080fd5b820183602082011115610b3957600080fd5b803590602001918460018302840111600160201b83111715610b5a57600080fd5b91908080601f01602080910402602001604051908101604052809392919081815260200183838082843760009201919091525092955061208b945050505050565b348015610ba757600080fd5b5061022260048036036040811015610bbe57600080fd5b81359190810190604081016020820135600160201b811115610bdf57600080fd5b820183602082011115610bf157600080fd5b803590602001918460018302840111600160201b83111715610c1257600080fd5b91908080601f01602080910402602001604051908101604052809392919081815260200183838082843760009201919091525092955061213c945050505050565b610c7e33333460405180602001604052806000815250604051806020016040528060008152506121b1565b60408051348152905133917fe1fffcc4923d04b559f4d29a8bfc6cda04eb5b0d3c460751c2402c5c5cc9109c919081900360200190a2565b6009546001600160a01b0316610cca6123de565b6001600160a01b031614610d1d576040805162461bcd60e51b815260206004820152601560248201527439b2b73232b91034b9903737ba1031b932b0ba37b960591b604482015290519081900360640190fd5b600c5460ff16610d69576040805162461bcd60e51b81526020600482015260126024820152711b5a59dc985d1a5bdb88199a5b9a5cda195960721b604482015290519081900360640190fd5b610d71611481565b610db0576040805162461bcd60e51b815260206004820152601d60248201526000805160206133fb833981519152604482015290519081900360640190fd5b806001600160a01b0316826001600160a01b03161415610e015760405162461bcd60e51b81526004018080602001828103825260218152602001806133266021913960400191505060405180910390fd5b6001600160a01b03811660009081526005602052604090205460ff1615610e53576001600160a01b038083166000908152600760209081526040808320938516835292905220805460ff191660011790555b5050565b60606004805480602002602001604051908101604052809291908181526020018280548015610eaf57602002820191906000526020600020905b81546001600160a01b03168152600190910190602001808311610e91575b5050505050905090565b60408051808201909152600f81526e0aee4c2e0e0cac84086dedcccd8eaf608b1b602082015290565b60015460009060ff1615610f30576040805162461bcd60e51b815260206004820152601060248201526f14185d5cd8589b194e881c185d5cd95960821b604482015290519081900360640190fd5b8115801590610f6157503360009081526008602090815260408083206001600160a01b038716845290915290205415155b15610f6b57600080fd5b6000610f756123de565b9050610f828185856123e2565b5060019392505050565b60035490565b60015460009060ff1615610fe0576040805162461bcd60e51b815260206004820152601060248201526f14185d5cd8589b194e881c185d5cd95960821b604482015290519081900360640190fd5b6001600160a01b0383166110255760405162461bcd60e51b81526004018080602001828103825260248152602001806133d76024913960400191505060405180910390fd5b6001600160a01b03841661106a5760405162461bcd60e51b81526004018080602001828103825260268152602001806134706026913960400191505060405180910390fd5b60006110746123de565b90506110a2818686866040518060200160405280600081525060405180602001604052806000815250612496565b6110ce8186868660405180602001604052806000815250604051806020016040528060008152506126de565b611128858261112386604051806060016040528060298152602001613447602991396001600160a01b03808c166000908152600860209081526040808320938b1683529290522054919063ffffffff61290116565b6123e2565b6111568186868660405180602001604052806000815250604051806020016040528060008152506000612998565b506001949350505050565b61117a816040518060200160405280600081525061213c565b50565b601290565b600a818154811061118f57fe5b6000918252602090912001546001600160a01b0316905081565b6111b96111b46123de565b611464565b6111f45760405162461bcd60e51b81526004018080602001828103825260308152602001806132b06030913960400191505060405180910390fd5b60015460ff16611242576040805162461bcd60e51b815260206004820152601460248201527314185d5cd8589b194e881b9bdd081c185d5cd95960621b604482015290519081900360640190fd5b6001805460ff191690557f5db9ee0a495bf2e6ff9c91a7834c1ba4fdd244a5e8aa4e537bd38aeae4b073aa6112756123de565b604080516001600160a01b039092168252519081900360200190a1565b6009546001600160a01b03166112a66123de565b6001600160a01b0316146112f9576040805162461bcd60e51b815260206004820152601560248201527439b2b73232b91034b9903737ba1031b932b0ba37b960591b604482015290519081900360640190fd5b600c5460ff16611345576040805162461bcd60e51b81526020600482015260126024820152711b5a59dc985d1a5bdb88199a5b9a5cda195960721b604482015290519081900360640190fd5b61134d611481565b61138c576040805162461bcd60e51b815260206004820152601d60248201526000805160206133fb833981519152604482015290519081900360640190fd5b806001600160a01b0316826001600160a01b031614156113dd5760405162461bcd60e51b81526004018080602001828103825260248152602001806133026024913960400191505060405180910390fd5b6001600160a01b03811660009081526005602052604090205460ff1615611430576001600160a01b038083166000908152600760209081526040808320938516835292905220805460ff19169055610e53565b6001600160a01b038083166000908152600660209081526040808320938516835292905220805460ff191660011790555050565b6000611476818363ffffffff612c3816565b92915050565b600190565b60015460ff1690565b60015460ff16156114d5576040805162461bcd60e51b815260206004820152601060248201526f14185d5cd8589b194e881c185d5cd95960821b604482015290519081900360640190fd5b6114e66114e06123de565b86611a79565b6115215760405162461bcd60e51b815260040180806020018281038252602c81526020018061341b602c913960400191505060405180910390fd5b61153861152c6123de565b86868686866001612c9f565b5050505050565b61154f61154a6123de565b612d73565b565b6001600160a01b031660009081526002602052604090205490565b600c5460ff1681565b6115806111b46123de565b6115bb5760405162461bcd60e51b81526004018080602001828103825260308152602001806132b06030913960400191505060405180910390fd5b61117a81612dbb565b6115cf6111b46123de565b61160a5760405162461bcd60e51b81526004018080602001828103825260308152602001806132b06030913960400191505060405180910390fd5b60015460ff1615611655576040805162461bcd60e51b815260206004820152601060248201526f14185d5cd8589b194e881c185d5cd95960821b604482015290519081900360640190fd5b6001805460ff1916811790557f62e78cea01bee320cd4e420270b5ea74000d11b0c9f74754ebdbfc544b05a2586112756123de565b6009546001600160a01b031661169e6123de565b6001600160a01b0316146116f1576040805162461bcd60e51b815260206004820152601560248201527439b2b73232b91034b9903737ba1031b932b0ba37b960591b604482015290519081900360640190fd5b600c805460ff19169055565b60015460ff1615611748576040805162461bcd60e51b815260206004820152601060248201526f14185d5cd8589b194e881c185d5cd95960821b604482015290519081900360640190fd5b806001600160a01b031661175a6123de565b6001600160a01b031614156117a05760405162461bcd60e51b81526004018080602001828103825260248152602001806133026024913960400191505060405180910390fd5b6001600160a01b03811660009081526005602052604090205460ff161561180357600760006117cd6123de565b6001600160a01b03908116825260208083019390935260409182016000908120918516815292529020805460ff1916905561184a565b6001600660006118116123de565b6001600160a01b03908116825260208083019390935260409182016000908120918616815292529020805460ff19169115159190911790555b6118526123de565b6001600160a01b0316816001600160a01b03167ff4caeb2d6ca8932a215a353d0703c326ec2d81fc68170f320eb2ab49e9df61f960405160405180910390a36118a161189c6123de565b611d67565b61117a81611d67565b6040805180820190915260048152630ae868cb60e31b602082015290565b60015460ff1615611913576040805162461bcd60e51b815260206004820152601060248201526f14185d5cd8589b194e881c185d5cd95960821b604482015290519081900360640190fd5b61194061191e6123de565b6119266123de565b858585604051806020016040528060008152506001612c9f565b505050565b60015460009060ff1615611993576040805162461bcd60e51b815260206004820152601060248201526f14185d5cd8589b194e881c185d5cd95960821b604482015290519081900360640190fd5b6001600160a01b0383166119d85760405162461bcd60e51b81526004018080602001828103825260248152602001806133d76024913960400191505060405180910390fd5b60006119e26123de565b9050611a10818286866040518060200160405280600081525060405180602001604052806000815250612496565b611a3c8182868660405180602001604052806000815250604051806020016040528060008152506126de565b610f828182868660405180602001604052806000815250604051806020016040528060008152506000612998565b6009546001600160a01b031681565b6000816001600160a01b0316836001600160a01b03161480611ae457506001600160a01b03831660009081526005602052604090205460ff168015611ae457506001600160a01b0380831660009081526007602090815260408083209387168352929052205460ff16155b80611b1457506001600160a01b0380831660009081526006602090815260408083209387168352929052205460ff165b9392505050565b6009546001600160a01b0316611b2f6123de565b6001600160a01b031614611b82576040805162461bcd60e51b815260206004820152601560248201527439b2b73232b91034b9903737ba1031b932b0ba37b960591b604482015290519081900360640190fd5b600c5460ff16611bce576040805162461bcd60e51b81526020600482015260126024820152711b5a59dc985d1a5bdb88199a5b9a5cda195960721b604482015290519081900360640190fd5b611bd6611481565b611c15576040805162461bcd60e51b815260206004820152601d60248201526000805160206133fb833981519152604482015290519081900360640190fd5b6119408383836123e2565b6001600160a01b03918216600090815260086020908152604080832093909416825291909152205490565b6009546001600160a01b0316611c5f6123de565b6001600160a01b031614611cb2576040805162461bcd60e51b815260206004820152601560248201527439b2b73232b91034b9903737ba1031b932b0ba37b960591b604482015290519081900360640190fd5b600c5460ff16611cfe576040805162461bcd60e51b81526020600482015260126024820152711b5a59dc985d1a5bdb88199a5b9a5cda195960721b604482015290519081900360640190fd5b611d06611481565b611d45576040805162461bcd60e51b815260206004820152601d60248201526000805160206133fb833981519152604482015290519081900360640190fd5b6001600160a01b03909116600090815260026020526040902055565b600a5490565b6001600160a01b0381166000908152600b602052604090205460ff1661117a576001600160a01b03166000818152600b60205260408120805460ff19166001908117909155600a805491820181559091527fc65a7bb8d6351c1cf70c95a316cc6a92839c986682d98bc35f958f4883f9d2a80180546001600160a01b0319169091179055565b6009546001600160a01b0316611e016123de565b6001600160a01b031614611e54576040805162461bcd60e51b815260206004820152601560248201527439b2b73232b91034b9903737ba1031b932b0ba37b960591b604482015290519081900360640190fd5b600c5460ff16611ea0576040805162461bcd60e51b81526020600482015260126024820152711b5a59dc985d1a5bdb88199a5b9a5cda195960721b604482015290519081900360640190fd5b611ea8611481565b611ee7576040805162461bcd60e51b815260206004820152601d60248201526000805160206133fb833981519152604482015290519081900360640190fd5b600355565b60015460ff1615611f37576040805162461bcd60e51b815260206004820152601060248201526f14185d5cd8589b194e881c185d5cd95960821b604482015290519081900360640190fd5b611f3f6123de565b6001600160a01b0316816001600160a01b03161415611f8f5760405162461bcd60e51b81526004018080602001828103825260218152602001806133266021913960400191505060405180910390fd5b6001600160a01b03811660009081526005602052604090205460ff1615611ffb57600160076000611fbe6123de565b6001600160a01b03908116825260208083019390935260409182016000908120918616815292529020805460ff1916911515919091179055612039565b600660006120076123de565b6001600160a01b03908116825260208083019390935260409182016000908120918516815292529020805460ff191690555b6120416123de565b6001600160a01b0316816001600160a01b03167f50546e66e5f44d728365dc3908c63bc5cfeeab470722c1677e3073a6ac294aa160405160405180910390a36118a161189c6123de565b60015460ff16156120d6576040805162461bcd60e51b815260206004820152601060248201526f14185d5cd8589b194e881c185d5cd95960821b604482015290519081900360640190fd5b6120e76120e16123de565b85611a79565b6121225760405162461bcd60e51b815260040180806020018281038252602c81526020018061341b602c913960400191505060405180910390fd5b61213661212d6123de565b85858585612e03565b50505050565b60015460ff1615612187576040805162461bcd60e51b815260206004820152601060248201526f14185d5cd8589b194e881c185d5cd95960821b604482015290519081900360640190fd5b610e536121926123de565b61219a6123de565b848460405180602001604052806000815250612e03565b6001600160a01b03841661220c576040805162461bcd60e51b815260206004820181905260248201527f4552433737373a206d696e7420746f20746865207a65726f2061646472657373604482015290519081900360640190fd5b60035461221f908463ffffffff6130a616565b6003556001600160a01b03841660009081526002602052604090205461224b908463ffffffff6130a616565b6001600160a01b038516600090815260026020526040812091909155612278908690868686866001612998565b836001600160a01b0316856001600160a01b03167f2fe5be0146f74c5bce36c0b80911af6c7d86ff27e89d5cfa61fc681327954e5d858585604051808481526020018060200180602001838103835285818151815260200191508051906020019080838360005b838110156122f75781810151838201526020016122df565b50505050905090810190601f1680156123245780820380516001836020036101000a031916815260200191505b50838103825284518152845160209182019186019080838360005b8381101561235757818101518382015260200161233f565b50505050905090810190601f1680156123845780820380516001836020036101000a031916815260200191505b509550505050505060405180910390a36040805184815290516001600160a01b038616916000917fddf252ad1be2c89b69c2b068fc378daa952ba7f163c4a11628f55a4df523b3ef9181900360200190a361153884611d67565b3390565b6001600160a01b0382166124275760405162461bcd60e51b81526004018080602001828103825260238152602001806134b96023913960400191505060405180910390fd5b6001600160a01b03808416600081815260086020908152604080832094871680845294825291829020859055815185815291517f8c5be1e5ebec7d5bd14f71427d1e84f3dd0314c0f7b2291e5b200ac8c7c3b9259281900390910190a361248d83611d67565b61194082611d67565b6040805163555ddc6560e11b81526001600160a01b03871660048201527f29ddb589b1fb5fc7cf394961c1adf5f8c6454761adf795e67fe149f658abe8956024820152905160009173866aca87ff33a0ae05d2164b3d999a804f5832229163aabbb8ca91604480820192602092909190829003018186803b15801561251a57600080fd5b505afa15801561252e573d6000803e3d6000fd5b505050506040513d602081101561254457600080fd5b505190506001600160a01b038116156126d557806001600160a01b03166375ab97828888888888886040518763ffffffff1660e01b815260040180876001600160a01b03166001600160a01b03168152602001866001600160a01b03166001600160a01b03168152602001856001600160a01b03166001600160a01b031681526020018481526020018060200180602001838103835285818151815260200191508051906020019080838360005b8381101561260a5781810151838201526020016125f2565b50505050905090810190601f1680156126375780820380516001836020036101000a031916815260200191505b50838103825284518152845160209182019186019080838360005b8381101561266a578181015183820152602001612652565b50505050905090810190601f1680156126975780820380516001836020036101000a031916815260200191505b5098505050505050505050600060405180830381600087803b1580156126bc57600080fd5b505af11580156126d0573d6000803e3d6000fd5b505050505b50505050505050565b61272183604051806060016040528060278152602001613289602791396001600160a01b038816600090815260026020526040902054919063ffffffff61290116565b6001600160a01b038087166000908152600260205260408082209390935590861681522054612756908463ffffffff6130a616565b60026000866001600160a01b03166001600160a01b0316815260200190815260200160002081905550836001600160a01b0316856001600160a01b0316876001600160a01b03167f06b541ddaa720db2b10a4d0cdac39b8d360425fc073085fac19bc82614677987868686604051808481526020018060200180602001838103835285818151815260200191508051906020019080838360005b838110156128085781810151838201526020016127f0565b50505050905090810190601f1680156128355780820380516001836020036101000a031916815260200191505b50838103825284518152845160209182019186019080838360005b83811015612868578181015183820152602001612850565b50505050905090810190601f1680156128955780820380516001836020036101000a031916815260200191505b509550505050505060405180910390a4836001600160a01b0316856001600160a01b03167fddf252ad1be2c89b69c2b068fc378daa952ba7f163c4a11628f55a4df523b3ef856040518082815260200191505060405180910390a36128f984611d67565b505050505050565b600081848411156129905760405162461bcd60e51b81526004018080602001828103825283818151815260200191508051906020019080838360005b8381101561295557818101518382015260200161293d565b50505050905090810190601f1680156129825780820380516001836020036101000a031916815260200191505b509250505060405180910390fd5b505050900390565b6040805163555ddc6560e11b81526001600160a01b03871660048201527fb281fc8c12954d22544db45de3159a39272895b169a852b314f9cc762e44c53b6024820152905160009173866aca87ff33a0ae05d2164b3d999a804f5832229163aabbb8ca91604480820192602092909190829003018186803b158015612a1c57600080fd5b505afa158015612a30573d6000803e3d6000fd5b505050506040513d6020811015612a4657600080fd5b505190506001600160a01b03811615612bda57806001600160a01b03166223de298989898989896040518763ffffffff1660e01b815260040180876001600160a01b03166001600160a01b03168152602001866001600160a01b03166001600160a01b03168152602001856001600160a01b03166001600160a01b031681526020018481526020018060200180602001838103835285818151815260200191508051906020019080838360005b83811015612b0b578181015183820152602001612af3565b50505050905090810190601f168015612b385780820380516001836020036101000a031916815260200191505b50838103825284518152845160209182019186019080838360005b83811015612b6b578181015183820152602001612b53565b50505050905090810190601f168015612b985780820380516001836020036101000a031916815260200191505b5098505050505050505050600060405180830381600087803b158015612bbd57600080fd5b505af1158015612bd1573d6000803e3d6000fd5b50505050612c2e565b8115612c2e57612bf2866001600160a01b0316613100565b15612c2e5760405162461bcd60e51b815260040180806020018281038252604d81526020018061338a604d913960600191505060405180910390fd5b5050505050505050565b60006001600160a01b038216612c7f5760405162461bcd60e51b81526004018080602001828103825260228152602001806133686022913960400191505060405180910390fd5b506001600160a01b03166000908152602091909152604090205460ff1690565b6001600160a01b038616612ce45760405162461bcd60e51b81526004018080602001828103825260228152602001806132676022913960400191505060405180910390fd5b6001600160a01b038516612d3f576040805162461bcd60e51b815260206004820181905260248201527f4552433737373a2073656e6420746f20746865207a65726f2061646472657373604482015290519081900360640190fd5b612d4d878787878787612496565b612d5b8787878787876126de565b612d6a87878787878787612998565b6126d585611d67565b612d8460008263ffffffff61313c16565b6040516001600160a01b038216907fcd265ebaf09df2871cc7bd4133404a235ba12eff2041bb89d9c714a2621c7c7e90600090a250565b612dcc60008263ffffffff6131a316565b6040516001600160a01b038216907f6719d08c1888103bea251a4ed56406bd0c3e69723c8a1686e017e7bbe159b6f890600090a250565b6001600160a01b038416612e485760405162461bcd60e51b81526004018080602001828103825260228152602001806132e06022913960400191505060405180910390fd5b612e5785856000868686612496565b612e9a83604051806060016040528060238152602001613496602391396001600160a01b038716600090815260026020526040902054919063ffffffff61290116565b6001600160a01b038516600090815260026020526040902055600354612ec6908463ffffffff61322416565b60035560405184906001600160a01b0382169085156108fc029086906000818181858888f19350505050158015612f01573d6000803e3d6000fd5b50846001600160a01b0316866001600160a01b03167fa78a9be3a7b862d26933ad85fb11d80ef66b8f972d7cbba06621d583943a4098868686604051808481526020018060200180602001838103835285818151815260200191508051906020019080838360005b83811015612f81578181015183820152602001612f69565b50505050905090810190601f168015612fae5780820380516001836020036101000a031916815260200191505b50838103825284518152845160209182019186019080838360005b83811015612fe1578181015183820152602001612fc9565b50505050905090810190601f16801561300e5780820380516001836020036101000a031916815260200191505b509550505050505060405180910390a36040805185815290516001600160a01b038716917f7fcf532c15f0a6db0bd6d0e038bea71d30d808c7d98cb3bf7268a95bf5081b65919081900360200190a26040805185815290516000916001600160a01b038816917fddf252ad1be2c89b69c2b068fc378daa952ba7f163c4a11628f55a4df523b3ef9181900360200190a3505050505050565b600082820183811015611b14576040805162461bcd60e51b815260206004820152601b60248201527f536166654d6174683a206164646974696f6e206f766572666c6f770000000000604482015290519081900360640190fd5b6000813f7fc5d2460186f7233c927e7db2dcc703c0e500b653ca82273b7bfad8045d85a47081158015906131345750808214155b949350505050565b6131468282612c38565b6131815760405162461bcd60e51b81526004018080602001828103825260218152602001806133476021913960400191505060405180910390fd5b6001600160a01b0316600090815260209190915260409020805460ff19169055565b6131ad8282612c38565b156131ff576040805162461bcd60e51b815260206004820152601f60248201527f526f6c65733a206163636f756e7420616c72656164792068617320726f6c6500604482015290519081900360640190fd5b6001600160a01b0316600090815260209190915260409020805460ff19166001179055565b6000611b1483836040518060400160405280601e81526020017f536166654d6174683a207375627472616374696f6e206f766572666c6f77000081525061290156fe4552433737373a2073656e642066726f6d20746865207a65726f20616464726573734552433737373a207472616e7366657220616d6f756e7420657863656564732062616c616e6365506175736572526f6c653a2063616c6c657220646f6573206e6f742068617665207468652050617573657220726f6c654552433737373a206275726e2066726f6d20746865207a65726f20616464726573734552433737373a20617574686f72697a696e672073656c66206173206f70657261746f724552433737373a207265766f6b696e672073656c66206173206f70657261746f72526f6c65733a206163636f756e7420646f6573206e6f74206861766520726f6c65526f6c65733a206163636f756e7420697320746865207a65726f20616464726573734552433737373a20746f6b656e20726563697069656e7420636f6e747261637420686173206e6f20696d706c656d656e74657220666f7220455243373737546f6b656e73526563697069656e744552433737373a207472616e7366657220746f20746865207a65726f2061646472657373746f6b656e206e6f742070617573656420696e206d6967726174696f6e0000004552433737373a2063616c6c6572206973206e6f7420616e206f70657261746f7220666f7220686f6c6465724552433737373a207472616e7366657220616d6f756e74206578636565647320616c6c6f77616e63654552433737373a207472616e736665722066726f6d20746865207a65726f20616464726573734552433737373a206275726e20616d6f756e7420657863656564732062616c616e63654552433737373a20617070726f766520746f20746865207a65726f2061646472657373a265627a7a72315820a17ba78d9e5d88b34a6709a3dd2f9d1fd5a069a362a86eaa4214acbdacb18bae64736f6c634300050b0032526f6c65733a206163636f756e7420697320746865207a65726f2061646472657373",
  "source": "pragma solidity 0.5.11;\n\nimport \"@openzeppelin/contracts/GSN/Context.sol\";\nimport \"@openzeppelin/contracts/token/ERC777/IERC777.sol\";\nimport \"@openzeppelin/contracts/token/ERC777/IERC777Recipient.sol\";\nimport \"@openzeppelin/contracts/token/ERC777/IERC777Sender.sol\";\nimport \"@openzeppelin/contracts/token/ERC20/IERC20.sol\";\nimport \"@openzeppelin/contracts/math/SafeMath.sol\";\nimport \"@openzeppelin/contracts/utils/Address.sol\";\nimport \"@openzeppelin/contracts/introspection/IERC1820Registry.sol\";\nimport \"@openzeppelin/contracts/lifecycle/Pausable.sol\";\n\ncontract WrappedCfx is Context, IERC777, IERC20, Pausable {\n    using SafeMath for uint256;\n    using Address for address;\n\n    IERC1820Registry private constant ERC1820_REGISTRY = IERC1820Registry(\n        //address(0x1820a4B7618BdE71Dce8cdc73aAB6C95905faD24)\n        address(0x866aCA87FF33a0ae05D2164B3D999A804F583222)\n    );\n\n    mapping(address => uint256) private _balances;\n\n    uint256 private _totalSupply;\n\n    string private constant _name = \"Wrapped Conflux\";\n    string private constant _symbol = \"WCFX\";\n\n    // keccak256(\"ERC777TokensSender\")\n    bytes32\n        private constant TOKENS_SENDER_INTERFACE_HASH = 0x29ddb589b1fb5fc7cf394961c1adf5f8c6454761adf795e67fe149f658abe895;\n\n    // keccak256(\"ERC777TokensRecipient\")\n    bytes32\n        private constant TOKENS_RECIPIENT_INTERFACE_HASH = 0xb281fc8c12954d22544db45de3159a39272895b169a852b314f9cc762e44c53b;\n\n    event Deposit(address indexed dst, uint256 wad);\n    event Withdrawal(address indexed src, uint256 wad);\n\n    // This isn't ever read from - it's only used to respond to the defaultOperators query.\n    address[] private _defaultOperatorsArray;\n\n    // Immutable, but accounts may revoke them (tracked in __revokedDefaultOperators).\n    mapping(address => bool) private _defaultOperators;\n\n    // For each account, a mapping of its operators and revoked default operators.\n    mapping(address => mapping(address => bool)) private _operators;\n    mapping(address => mapping(address => bool))\n        private _revokedDefaultOperators;\n\n    // ERC20-allowances\n    mapping(address => mapping(address => uint256)) private _allowances;\n\n    // data migration\n    address public _creator;\n    address[] public _account_list;\n    mapping(address => bool) _account_set;\n    bool public in_migration;\n\n    /**\n     * @dev `defaultOperators` may be an empty array.\n     */\n    constructor(address[] memory defaultOperators) public {\n        _defaultOperatorsArray = defaultOperators;\n        for (uint256 i = 0; i < _defaultOperatorsArray.length; i++) {\n            _defaultOperators[_defaultOperatorsArray[i]] = true;\n            addAccount(_defaultOperatorsArray[i]);\n        }\n\n        // register interfaces\n        ERC1820_REGISTRY.setInterfaceImplementer(\n            address(this),\n            keccak256(\"ERC777Token\"),\n            address(this)\n        );\n        ERC1820_REGISTRY.setInterfaceImplementer(\n            address(this),\n            keccak256(\"ERC20Token\"),\n            address(this)\n        );\n\n        _creator = _msgSender();\n        in_migration = true;\n    }\n\n    /**\n     * @dev See {IERC777-name}.\n     */\n    function name() public view returns (string memory) {\n        return _name;\n    }\n\n    /**\n     * @dev See {IERC777-symbol}.\n     */\n    function symbol() public view returns (string memory) {\n        return _symbol;\n    }\n\n    /**\n     * @dev See {ERC20Detailed-decimals}.\n     *\n     * Always returns 18, as per the\n     * [ERC777 EIP](https://eips.ethereum.org/EIPS/eip-777#backward-compatibility).\n     */\n    function decimals() public pure returns (uint8) {\n        return 18;\n    }\n\n    /**\n     * @dev See {IERC777-granularity}.\n     *\n     * This implementation always returns `1`.\n     */\n    function granularity() public view returns (uint256) {\n        return 1;\n    }\n\n    /**\n     * @dev See {IERC777-totalSupply}.\n     */\n    function totalSupply() public view returns (uint256) {\n        return _totalSupply;\n    }\n\n    /**\n     * @dev Returns the amount of tokens owned by an account (`tokenHolder`).\n     */\n    function balanceOf(address tokenHolder) public view returns (uint256) {\n        return _balances[tokenHolder];\n    }\n\n    /**\n     * @dev See {IERC777-send}.\n     *\n     * Also emits a {IERC20-Transfer} event for ERC20 compatibility.\n     */\n    function send(\n        address recipient,\n        uint256 amount,\n        bytes memory data\n    ) public whenNotPaused {\n        _send(_msgSender(), _msgSender(), recipient, amount, data, \"\", true);\n    }\n\n    /**\n     * @dev See {IERC20-transfer}.\n     *\n     * Unlike `send`, `recipient` is _not_ required to implement the {IERC777Recipient}\n     * interface if it is a contract.\n     *\n     * Also emits a {Sent} event.\n     */\n    function transfer(address recipient, uint256 amount)\n        public\n        whenNotPaused\n        returns (bool)\n    {\n        require(\n            recipient != address(0),\n            \"ERC777: transfer to the zero address\"\n        );\n\n        address from = _msgSender();\n\n        _callTokensToSend(from, from, recipient, amount, \"\", \"\");\n\n        _move(from, from, recipient, amount, \"\", \"\");\n\n        _callTokensReceived(from, from, recipient, amount, \"\", \"\", false);\n\n        return true;\n    }\n\n    function withdraw(uint256 amount) public {\n        burn(amount, \"\");\n    }\n\n    /**\n     * @dev See {IERC777-burn}.\n     *\n     * Also emits a {IERC20-Transfer} event for ERC20 compatibility.\n     */\n    function burn(uint256 amount, bytes memory data) public whenNotPaused {\n        _burn(_msgSender(), _msgSender(), amount, data, \"\");\n    }\n\n    /**\n     * @dev See {IERC777-isOperatorFor}.\n     */\n    function isOperatorFor(address operator, address tokenHolder)\n        public\n        view\n        returns (bool)\n    {\n        return\n            operator == tokenHolder ||\n            (_defaultOperators[operator] &&\n                !_revokedDefaultOperators[tokenHolder][operator]) ||\n            _operators[tokenHolder][operator];\n    }\n\n    /**\n     * @dev See {IERC777-authorizeOperator}.\n     */\n    function authorizeOperator(address operator) public whenNotPaused {\n        require(\n            _msgSender() != operator,\n            \"ERC777: authorizing self as operator\"\n        );\n\n        if (_defaultOperators[operator]) {\n            delete _revokedDefaultOperators[_msgSender()][operator];\n        } else {\n            _operators[_msgSender()][operator] = true;\n        }\n\n        emit AuthorizedOperator(operator, _msgSender());\n\n        addAccount(_msgSender());\n        addAccount(operator);\n    }\n\n    /**\n     * @dev See {IERC777-revokeOperator}.\n     */\n    function revokeOperator(address operator) public whenNotPaused {\n        require(operator != _msgSender(), \"ERC777: revoking self as operator\");\n\n        if (_defaultOperators[operator]) {\n            _revokedDefaultOperators[_msgSender()][operator] = true;\n        } else {\n            delete _operators[_msgSender()][operator];\n        }\n\n        emit RevokedOperator(operator, _msgSender());\n\n        addAccount(_msgSender());\n        addAccount(operator);\n    }\n\n    /**\n     * @dev See {IERC777-defaultOperators}.\n     */\n    function defaultOperators() public view returns (address[] memory) {\n        return _defaultOperatorsArray;\n    }\n\n    /**\n     * @dev See {IERC777-operatorSend}.\n     *\n     * Emits {Sent} and {IERC20-Transfer} events.\n     */\n    function operatorSend(\n        address sender,\n        address recipient,\n        uint256 amount,\n        bytes memory data,\n        bytes memory operatorData\n    ) public whenNotPaused {\n        require(\n            isOperatorFor(_msgSender(), sender),\n            \"ERC777: caller is not an operator for holder\"\n        );\n        _send(\n            _msgSender(),\n            sender,\n            recipient,\n            amount,\n            data,\n            operatorData,\n            true\n        );\n    }\n\n    /**\n     * @dev See {IERC777-operatorBurn}.\n     *\n     * Emits {Burned} and {IERC20-Transfer} events.\n     */\n    function operatorBurn(\n        address account,\n        uint256 amount,\n        bytes memory data,\n        bytes memory operatorData\n    ) public whenNotPaused {\n        require(\n            isOperatorFor(_msgSender(), account),\n            \"ERC777: caller is not an operator for holder\"\n        );\n        _burn(_msgSender(), account, amount, data, operatorData);\n    }\n\n    /**\n     * @dev See {IERC20-allowance}.\n     *\n     * Note that operator and allowance concepts are orthogonal: operators may\n     * not have allowance, and accounts with allowance may not be operators\n     * themselves.\n     */\n    function allowance(address holder, address spender)\n        public\n        view\n        returns (uint256)\n    {\n        return _allowances[holder][spender];\n    }\n\n    /**\n     * @dev See {IERC20-approve}.\n     *\n     * Note that accounts cannot have allowance issued by their operators.\n     */\n    function approve(address spender, uint256 value)\n        public\n        whenNotPaused\n        returns (bool)\n    {\n        require(!((value != 0) && (_allowances[msg.sender][spender] != 0)));\n        address holder = _msgSender();\n        _approve(holder, spender, value);\n        return true;\n    }\n\n    /**\n     * @dev See {IERC20-transferFrom}.\n     *\n     * Note that operator and allowance concepts are orthogonal: operators cannot\n     * call `transferFrom` (unless they have allowance), and accounts with\n     * allowance cannot call `operatorSend` (unless they are operators).\n     *\n     * Emits {Sent}, {IERC20-Transfer} and {IERC20-Approval} events.\n     */\n    function transferFrom(\n        address holder,\n        address recipient,\n        uint256 amount\n    ) public whenNotPaused returns (bool) {\n        require(\n            recipient != address(0),\n            \"ERC777: transfer to the zero address\"\n        );\n        require(holder != address(0), \"ERC777: transfer from the zero address\");\n\n        address spender = _msgSender();\n\n        _callTokensToSend(spender, holder, recipient, amount, \"\", \"\");\n\n        _move(spender, holder, recipient, amount, \"\", \"\");\n        _approve(\n            holder,\n            spender,\n            _allowances[holder][spender].sub(\n                amount,\n                \"ERC777: transfer amount exceeds allowance\"\n            )\n        );\n\n        _callTokensReceived(spender, holder, recipient, amount, \"\", \"\", false);\n\n        return true;\n    }\n\n    function deposit() public payable {\n        _mint(msg.sender, msg.sender, msg.value, \"\", \"\");\n        emit Deposit(msg.sender, msg.value);\n    }\n\n    function() external payable {\n        deposit();\n    }\n\n    /**\n     * @dev Creates `amount` tokens and assigns them to `account`, increasing\n     * the total supply.\n     *\n     * If a send hook is registered for `account`, the corresponding function\n     * will be called with `operator`, `data` and `operatorData`.\n     *\n     * See {IERC777Sender} and {IERC777Recipient}.\n     *\n     * Emits {Minted} and {IERC20-Transfer} events.\n     *\n     * Requirements\n     *\n     * - `account` cannot be the zero address.\n     * - if `account` is a contract, it must implement the {IERC777Recipient}\n     * interface.\n     */\n    function _mint(\n        address operator,\n        address account,\n        uint256 amount,\n        bytes memory userData,\n        bytes memory operatorData\n    ) internal {\n        require(account != address(0), \"ERC777: mint to the zero address\");\n\n        // Update state variables\n        _totalSupply = _totalSupply.add(amount);\n        _balances[account] = _balances[account].add(amount);\n\n        _callTokensReceived(\n            operator,\n            address(0),\n            account,\n            amount,\n            userData,\n            operatorData,\n            true\n        );\n\n        emit Minted(operator, account, amount, userData, operatorData);\n        emit Transfer(address(0), account, amount);\n\n        addAccount(account);\n    }\n\n    /**\n     * @dev Send tokens\n     * @param operator address operator requesting the transfer\n     * @param from address token holder address\n     * @param to address recipient address\n     * @param amount uint256 amount of tokens to transfer\n     * @param userData bytes extra information provided by the token holder (if any)\n     * @param operatorData bytes extra information provided by the operator (if any)\n     * @param requireReceptionAck if true, contract recipients are required to implement ERC777TokensRecipient\n     */\n    function _send(\n        address operator,\n        address from,\n        address to,\n        uint256 amount,\n        bytes memory userData,\n        bytes memory operatorData,\n        bool requireReceptionAck\n    ) private {\n        require(from != address(0), \"ERC777: send from the zero address\");\n        require(to != address(0), \"ERC777: send to the zero address\");\n\n        _callTokensToSend(operator, from, to, amount, userData, operatorData);\n\n        _move(operator, from, to, amount, userData, operatorData);\n\n        _callTokensReceived(\n            operator,\n            from,\n            to,\n            amount,\n            userData,\n            operatorData,\n            requireReceptionAck\n        );\n\n        addAccount(to);\n    }\n\n    /**\n     * @dev Burn tokens\n     * @param operator address operator requesting the operation\n     * @param from address token holder address\n     * @param amount uint256 amount of tokens to burn\n     * @param data bytes extra information provided by the token holder\n     * @param operatorData bytes extra information provided by the operator (if any)\n     */\n    function _burn(\n        address operator,\n        address from,\n        uint256 amount,\n        bytes memory data,\n        bytes memory operatorData\n    ) internal {\n        require(from != address(0), \"ERC777: burn from the zero address\");\n\n        _callTokensToSend(\n            operator,\n            from,\n            address(0),\n            amount,\n            data,\n            operatorData\n        );\n\n        // Update state variables\n        _balances[from] = _balances[from].sub(\n            amount,\n            \"ERC777: burn amount exceeds balance\"\n        );\n        _totalSupply = _totalSupply.sub(amount);\n\n        // withdraw CFX\n        address payable toAddress = address(uint160(from));\n        toAddress.transfer(amount);\n\n        emit Burned(operator, from, amount, data, operatorData);\n        emit Withdrawal(from, amount);\n        emit Transfer(from, address(0), amount);\n    }\n\n    function _move(\n        address operator,\n        address from,\n        address to,\n        uint256 amount,\n        bytes memory userData,\n        bytes memory operatorData\n    ) private {\n        _balances[from] = _balances[from].sub(\n            amount,\n            \"ERC777: transfer amount exceeds balance\"\n        );\n        _balances[to] = _balances[to].add(amount);\n\n        emit Sent(operator, from, to, amount, userData, operatorData);\n        emit Transfer(from, to, amount);\n\n        addAccount(to);\n    }\n\n    function _approve(\n        address holder,\n        address spender,\n        uint256 value\n    ) private {\n        // TODO: restore this require statement if this function becomes internal, or is called at a new callsite. It is\n        // currently unnecessary.\n        //require(holder != address(0), \"ERC777: approve from the zero address\");\n        require(spender != address(0), \"ERC777: approve to the zero address\");\n\n        _allowances[holder][spender] = value;\n        emit Approval(holder, spender, value);\n\n        addAccount(holder);\n        addAccount(spender);\n    }\n\n    /**\n     * @dev Call from.tokensToSend() if the interface is registered\n     * @param operator address operator requesting the transfer\n     * @param from address token holder address\n     * @param to address recipient address\n     * @param amount uint256 amount of tokens to transfer\n     * @param userData bytes extra information provided by the token holder (if any)\n     * @param operatorData bytes extra information provided by the operator (if any)\n     */\n    function _callTokensToSend(\n        address operator,\n        address from,\n        address to,\n        uint256 amount,\n        bytes memory userData,\n        bytes memory operatorData\n    ) private {\n        address implementer = ERC1820_REGISTRY.getInterfaceImplementer(\n            from,\n            TOKENS_SENDER_INTERFACE_HASH\n        );\n        if (implementer != address(0)) {\n            IERC777Sender(implementer).tokensToSend(\n                operator,\n                from,\n                to,\n                amount,\n                userData,\n                operatorData\n            );\n        }\n    }\n\n    /**\n     * @dev Call to.tokensReceived() if the interface is registered. Reverts if the recipient is a contract but\n     * tokensReceived() was not registered for the recipient\n     * @param operator address operator requesting the transfer\n     * @param from address token holder address\n     * @param to address recipient address\n     * @param amount uint256 amount of tokens to transfer\n     * @param userData bytes extra information provided by the token holder (if any)\n     * @param operatorData bytes extra information provided by the operator (if any)\n     * @param requireReceptionAck if true, contract recipients are required to implement ERC777TokensRecipient\n     */\n    function _callTokensReceived(\n        address operator,\n        address from,\n        address to,\n        uint256 amount,\n        bytes memory userData,\n        bytes memory operatorData,\n        bool requireReceptionAck\n    ) private {\n        address implementer = ERC1820_REGISTRY.getInterfaceImplementer(\n            to,\n            TOKENS_RECIPIENT_INTERFACE_HASH\n        );\n        if (implementer != address(0)) {\n            IERC777Recipient(implementer).tokensReceived(\n                operator,\n                from,\n                to,\n                amount,\n                userData,\n                operatorData\n            );\n        } else if (requireReceptionAck) {\n            require(\n                !to.isContract(),\n                \"ERC777: token recipient contract has no implementer for ERC777TokensRecipient\"\n            );\n        }\n    }\n\n    /*===== Data Migration =====*/\n    modifier whenMigration() {\n        require(in_migration, \"migration finished\");\n        require(paused(), \"token not paused in migration\");\n        _;\n    }\n\n    modifier onlyCreator() {\n        require(_msgSender() == _creator, \"sender is not creator\");\n        _;\n    }\n\n    function finishMigration() public onlyCreator {\n        in_migration = false;\n    }\n\n    function addAccount(address account) public {\n        if (!_account_set[account]) {\n            _account_set[account] = true;\n            _account_list.push(account);\n        }\n    }\n\n    function accountCount() public view returns (uint256) {\n        return _account_list.length;\n    }\n\n    function setTotalSupply(uint256 newTotalSupply)\n        public\n        onlyCreator\n        whenMigration\n    {\n        _totalSupply = newTotalSupply;\n    }\n\n    function setBalance(address account, uint256 balance)\n        public\n        onlyCreator\n        whenMigration\n    {\n        _balances[account] = balance;\n    }\n\n    function setAllowance(\n        address holder,\n        address spender,\n        uint256 amount\n    ) public onlyCreator whenMigration {\n        _approve(holder, spender, amount);\n    }\n\n    function setOpeartor(address tokenHolder, address operator)\n        public\n        onlyCreator\n        whenMigration\n    {\n        require(\n            tokenHolder != operator,\n            \"ERC777: authorizing self as operator\"\n        );\n\n        if (_defaultOperators[operator]) {\n            delete _revokedDefaultOperators[tokenHolder][operator];\n        } else {\n            _operators[tokenHolder][operator] = true;\n        }\n    }\n\n    function setRevokedDefaultOperator(address tokenHolder, address operator)\n        public\n        onlyCreator\n        whenMigration\n    {\n        require(tokenHolder != operator, \"ERC777: revoking self as operator\");\n\n        if (_defaultOperators[operator]) {\n            _revokedDefaultOperators[tokenHolder][operator] = true;\n        }\n    }\n}\n",
  "sourcePath": "/Users/wangfan/Project/Wrapped-Conflux/contracts/WrappedCfx.sol",
  "compiler": {
    "name": "solc",
    "version": "0.5.11+commit.c082d0b4.Emscripten.clang"
  },
  "schemaVersion": "3.2.3",
  "updatedAt": "2020-08-03T08:59:35.109Z",
  "devdoc": {
    "methods": {
      "allowance(address,address)": {
        "details": "See {IERC20-allowance}.     * Note that operator and allowance concepts are orthogonal: operators may not have allowance, and accounts with allowance may not be operators themselves."
      },
      "approve(address,uint256)": {
        "details": "See {IERC20-approve}.     * Note that accounts cannot have allowance issued by their operators."
      },
      "authorizeOperator(address)": {
        "details": "See {IERC777-authorizeOperator}."
      },
      "balanceOf(address)": {
        "details": "Returns the amount of tokens owned by an account (`tokenHolder`)."
      },
      "burn(uint256,bytes)": {
        "details": "See {IERC777-burn}.     * Also emits a {IERC20-Transfer} event for ERC20 compatibility."
      },
      "constructor": {
        "details": "`defaultOperators` may be an empty array."
      },
      "decimals()": {
        "details": "See {ERC20Detailed-decimals}.     * Always returns 18, as per the [ERC777 EIP](https://eips.ethereum.org/EIPS/eip-777#backward-compatibility)."
      },
      "defaultOperators()": {
        "details": "See {IERC777-defaultOperators}."
      },
      "granularity()": {
        "details": "See {IERC777-granularity}.     * This implementation always returns `1`."
      },
      "isOperatorFor(address,address)": {
        "details": "See {IERC777-isOperatorFor}."
      },
      "name()": {
        "details": "See {IERC777-name}."
      },
      "operatorBurn(address,uint256,bytes,bytes)": {
        "details": "See {IERC777-operatorBurn}.     * Emits {Burned} and {IERC20-Transfer} events."
      },
      "operatorSend(address,address,uint256,bytes,bytes)": {
        "details": "See {IERC777-operatorSend}.     * Emits {Sent} and {IERC20-Transfer} events."
      },
      "pause()": {
        "details": "Called by a pauser to pause, triggers stopped state."
      },
      "paused()": {
        "details": "Returns true if the contract is paused, and false otherwise."
      },
      "revokeOperator(address)": {
        "details": "See {IERC777-revokeOperator}."
      },
      "send(address,uint256,bytes)": {
        "details": "See {IERC777-send}.     * Also emits a {IERC20-Transfer} event for ERC20 compatibility."
      },
      "symbol()": {
        "details": "See {IERC777-symbol}."
      },
      "totalSupply()": {
        "details": "See {IERC777-totalSupply}."
      },
      "transfer(address,uint256)": {
        "details": "See {IERC20-transfer}.     * Unlike `send`, `recipient` is _not_ required to implement the {IERC777Recipient} interface if it is a contract.     * Also emits a {Sent} event."
      },
      "transferFrom(address,address,uint256)": {
        "details": "See {IERC20-transferFrom}.     * Note that operator and allowance concepts are orthogonal: operators cannot call `transferFrom` (unless they have allowance), and accounts with allowance cannot call `operatorSend` (unless they are operators).     * Emits {Sent}, {IERC20-Transfer} and {IERC20-Approval} events."
      },
      "unpause()": {
        "details": "Called by a pauser to unpause, returns to normal state."
      }
    }
  },
  "userdoc": {
    "methods": {}
  }
}